S00D00004C616220342E73726563B4
S11300000C942E000C944F050C94BE050C942D06F4
S11300100C949C060C940B070C944B000C94760DDA
S11300200C944B000C94240D0C947A070C94E9075F
S11300300C9458080C94C7080C9436090C94A50920
S11300400C94140A0C94830A0C94F20A0C94610B19
S11300500C94D00B0C943F0C0C94AE0C11241FBECA
S1130060CFEFD4E0DEBFCDBF11E0A0E0B1E0E0E728
S1130070F4E202C005900D92A639B107D9F724E045
S1130080A6E9B1E001C01D92AD3EB207E1F70E94BE
S1130090A2020C9436120C940000CF92DF92EF92DD
S11300A0FF920F931F93CF93DF93EC011E9933C0FC
S11300B00A851B85C12CD12C0F2EF8E7EF2EF3E017
S11300C0FF2EF02D20E030E0A90160E070E0CB01CC
S11300D00E94160EE885F985AA85BB8516968D9132
S11300E09C911797092E000CAA0BBB0B8483958354
S11300F0A683B783088519850F2EF5E6EF2EF2E067
S1130100FF2EF02D20E030E0A90160E070E0CB018B
S11301100E94160E75C01F9933C00A851B85C12C19
S1130120D12C0F2EF4E9EF2EF3E0FF2EF02D20E07A
S113013030E0A90160E070E0CB010E94160EE88572
S1130140F985AA85BB8516968D919C911797092EE2
S1130150000CAA0BBB0B84839583A683B783088505
S113016019850F2EF5E6EF2EF2E0FF2EF02D20E09C
S113017030E0A90160E070E0CB010E94160E40C09F
S11301801C993EC0EA85FB8582859385009739F4E6
S1130190E885F98514821582168217820FC00197AB
S11301A069F42885398586819781092E000CAA0B6C
S11301B0BB0BF90184839583A683B7830A851B85CA
S11301C0C12CD12C0F2EF3EBEF2EF3E0FF2EF02DEC
S11301D020E030E0A90160E070E0CB010E94160E3F
S11301E0088519850F2EF5E6EF2EF2E0FF2EF02D8F
S11301F020E030E0A90160E070E0CB010E94160E1F
S1130200DF91CF911F910F91FF90EF90DF90CF90EE
S11302100895FC0162990FC0848195819387828738
S11302200084F185E02D118610861092F90081E09A
S11302308093FE000895639910C086819781938707
S113024082870084F185E02D84E090E091878087A7
S113025081E08093F9001092FE000895E1E6F0E059
S113026080E88083108287EB8093E50087E08093A9
S1130270E6008FE08093E70080EC8093E40008952B
S1130280CF92DF92EF92FF921F93CF93DF9310ED03
S1130290180F6630710508F0B1C01A3008F0AEC00E
S11302A09B012E5F3F4FC90199230CF401966B010A
S11302B0BC0175956795072E000C880B990B0E945D
S11302C0D0100E940B1120E030E040E85FE30E9470
S11302D02B100E949810FB01EE0FFF1FE05BFE4FF6
S11302E0A081B181ED90FC901197E12FF0E09F0186
S11302F0220F331F220F331F220F331F20503F4F73
S1130300E90148815981960121703078332334F40E
S1130310215031092E6F3F6F2F5F3F4F220F331F44
S1130320220F331F022E02C0440F551F0A94E2F716
S11303304E0D5F1D4D935C936B017C01D4E0CD0E9B
S1130340D11CE11CF11CA601440F551FDA01A05B6E
S1130350BE4F0D90BC91A02DCD91DC911197EE0F65
S1130360FF1FEE0FFF1FEE0FFF1FE050FF4F4281F4
S11303705381022E02C0440F551F0A94E2F74C0F1A
S11303805D1F4D935C936B017C0148E0C40ED11C4E
S1130390E11CF11CA601440F551FDA01A05BBE4FFE
S11303A00D90BC91A02DCD91DC9111974481558184
S11303B0022E02C0440F551F0A94E2F74C0F5D1F32
S11303C04D935C93DC01CB010C96A11DB11DBC01C6
S11303D0660F771FDB01A05BBE4F0D90BC91A02D73
S11303E04D915C9111978681978102C0880F991F66
S11303F02A95E2F7840F951F8D939C93DF91CF91FB
S11304001F91FF90EF90DF90CF9008958230910577
S113041048F41092EC001092F1001092F600109241
S1130420FB0008950397029780F41092ED00109258
S1130430EE001092F2001092F3001092F700109266
S1130440F8001092FC001092FD0008958F929F9284
S1130450AF92BF92CF92DF92EF92FF92CF93DF934E
S11304604B015C01EA01CA010E940602C501B40104
S113047024E630E040E050E00E94B4110F2EFAE090
S1130480CF2ED12CE12CF12CF02DA70196010E9446
S1130490B411BE0180E3820F0E9440012196C50180
S11304A0B401A70196010E94B411862FBE01805D9C
S11304B00E944001DF91CF91FF90EF90DF90CF90A9
S11304C0BF90AF909F908F900895CF93DF93EC01EE
S11304D08C819D81AE81BF81BB2324F41C821D824B
S11304E01E821F828C819D81AE81BF8184369105DD
S11304F0A105B10544F083E690E0A0E0B0E08C8370
S11305009D83AE83BF83888599850E9406024885B2
S113051059856C817D818E819F810E942602DF91A5
S1130520CF910895CF93DF93EC010E9465028E85ED
S11305309F850E943703888999890E943703DF9138
S1130540CF9108950F931F93CF93DF93CDB7DEB769
S1130550EA970FB6F894DEBF0FBECDBF80ED85B924
S11305608CE08EB98FEF80936C0080936B008DB319
S1130570806C8DBB8EB18EB98DB180658DB92EE046
S1130580EAE7F1E0CE010196DC0101900D922A9593
S1130590E1F72EE0E8E8F1E0DE011F9601900D920C
S11305A02A95E1F71E8E1D8E18A21F8E41E050E0A1
S11305B060E070E049A35AA36BA37CA31EA21DA212
S11305C018A61FA21AA619A69CA78BA79E01215F95
S11305D03F4F3EA72DA718AA1FA61AAA19AA9CAB7B
S11305E08BAB3EAB2DAB8E01035E1F4F18AF0FAB31
S11305F09AAF89AF0E942E0141E069E071E0CE011B
S11306008F960E94F90F42E06DE470E0CE018F9660
S11306100E94F90F40E050E062E972E0C8010E94D4
S11306201410EA960FB6F894DEBF0FBECDBFDF916B
S1130630CF911F910F9108956115710521F49EB119
S113064080E189278EB96130710521F49EB180E47F
S113065089278EB908956115710519F48EB18EB983
S113066008956130710511F48EB18EB90895CF9259
S1130670DF92EF92FF920F931F93CF93DF93EC01DE
S11306808A859B85009739F46C817D818C859D8555
S11306900E941C0308C0019731F46C817D818C8514
S11306A09D850E942B032E813F81032E000C440B59
S11306B0550B69E07DE380E090E00E94B411CA012B
S11306C0B901C12CD12C0F2EF7E3EF2EF3E0FF2E4E
S11306D0F02D8E0120E030E0A9010E94160EDF917A
S11306E0CF911F910F91FF90EF90DF90CF900895DD
S11306F020919801309199012F5F3F4F30939901D8
S11307002093980120917001309171012F5F3F4F28
S11307103093710120937001FC01268137812F5F92
S11307203F4F378326830895209196013091970196
S11307302F5F3F4F309397012093960120917001D2
S1130740309171012150310930937101209370016E
S1130750FC01268137812230310524F021503109F2
S1130760378326830895FC012285338521153105BD
S113077029F421E030E033872287089521303105C0
S113078019F4FC01138612860895CF93DF9300D0E9
S113079000D0CDB7DEB780E090E018C0AC014F5F69
S11307A05F4F9A0122953295307F3227207F32277E
S11307B023583D4F82959295907F9827807F982764
S11307C0FC01E358FD4F31832083CA018E3091052B
S11307D02CF310925E0310925D0380E090E015C04C
S11307E0AC014F5F5F4F6DE1649F9001659F300DD9
S11307F0112428533E4F689FF001699FF00D112486
S1130800E853FE4F31832083CA018330910544F3BA
S11308101092200210921F021A82198232C02DE116
S113082049815A81249FC001259F900D1124FC0108
S1130830E253FE4FFC83EB83CF010E94F51120E6C7
S113084049815A81249FC001259F900D112487530B
S11308509C4FEB81FC81918B808B938B828B81EA03
S11308609FE0968B858B8DE1849FF001859FF00D31
S11308701124E853FE4F158214824F5F5F4F5A8351
S1130880498329813A81243031054CF2E0E6F2E0D3
S1130890118210821582148213821282E1E6F0E042
S11308A080E880831082109285001092840084E096
S11308B08093810081E080936F000F900F900F90E0
S11308C00F90DF91CF910895CF93DF9300D0CDB7F0
S11308D0DEB79A83898380917201909173010696A1
S11308E00E94F511892B59F489819A81909373019F
S11308F08093720161E070E006960E9415120F90D9
S11309000F90DF91CF9108950F931F93CF93DF93AF
S1130910DC01CB01EB01E881F981C0E0D0E004C047
S1130920EF010190F081E02D309779F00681178175
S11309302085318516964D915D916D917C91199725
S113094040175107620773075CF71196FC93EE9307
S1130950209721F4FC01B183A08302C0B983A8834A
S1130960DF91CF911F910F9108950F931F93CF9310
S1130970DF93DC01CB01EB01E881F981C0E0D0E039
S113098004C0EF010190F081E02D309779F00281ED
S113099013812481358112964D915D916D917C91E5
S11309A0159740175107620773075CF71196FC937C
S11309B0EE93209721F4FC01B183A08302C0B98394
S11309C0A883DF91CF911F910F910895DC01ED91E0
S11309D0FC911197309759F48FEF8093EC0080933A
S11309E0ED008093EE0081E083BF8895FCCF2081E9
S11309F031812D933C93CF010895FB0120813181F6
S1130A00FC0131832083FB01918380830895FB01E2
S1130A1020813181FC0131832083FB019183808318
S1130A200895DC01ED91FC911197208131812D9382
S1130A303C93CF010895CF93DF93E0917401F0913B
S1130A407501C281D381E091A201F091A301309795
S1130A5019F18091760190917701892BE9F0209723
S1130A6069F086819781A085B1854E815F81688513
S1130A707985841B950BA60BB70B72F486E791E07E
S1130A800E94110564E771E00E94070580917401DA
S1130A90909175010E946404DF91CF9108951F9293
S1130AA00F920FB60F9211240F931F932F933F931E
S1130AB04F935F936F937F938F939F93AF93BF9362
S1130AC0EF93FF9380919A0190919B01AC01092EC1
S1130AD0000C660B770B9A011127002740918400C4
S1130AE05091850060E070E0402B512B622B732BFA
S1130AF040939C0150939D0160939E0170939F01CC
S1130B00B09B1AC00196092E000CAA0BBB0BBC01AA
S1130B10552744278091840090918500A0E0B0E09F
S1130B20842B952BA62BB72B80939C0190939D012E
S1130B30A0939E01B0939F01E0913C02F0913D028D
S1130B40309739F060E070E08091A4019091A501A4
S1130B5009950E941B05FF91EF91BF91AF919F9161
S1130B608F917F916F915F914F913F912F911F9141
S1130B700F910F900FBE0F901F9018951F920F9218
S1130B800FB60F9211240F931F932F933F934F93FC
S1130B905F936F937F938F939F93AF93BF93EF93E1
S1130BA0FF9380919A0190919B01AC01092E000C56
S1130BB0660B770B9A01112700274091840050910E
S1130BC0850060E070E0402B512B622B732B409327
S1130BD09C0150939D0160939E0170939F01B09B73
S1130BE01AC00196092E000CAA0BBB0BBC01552799
S1130BF044278091840090918500A0E0B0E0842B8C
S1130C00952BA62BB72B80939C0190939D01A093C9
S1130C109E01B0939F01E0913E02F0913F02309714
S1130C2039F061E070E08091A6019091A7010995E7
S1130C300E941B05FF91EF91BF91AF919F918F91FE
S1130C407F916F915F914F913F912F911F910F91E0
S1130C500F900FBE0F901F9018951F920F920FB612
S1130C600F9211240F931F932F933F934F935F93EE
S1130C706F937F938F939F93AF93BF93EF93FF9360
S1130C8080919A0190919B01AC01092E000C660B96
S1130C90770B9A0111270027409184005091850019
S1130CA060E070E0402B512B622B732B40939C012E
S1130CB050939D0160939E0170939F01B09B1AC055
S1130CC00196092E000CAA0BBB0BBC015527442727
S1130CD08091840090918500A0E0B0E0842B952B56
S1130CE0A62BB72B80939C0190939D01A0939E010A
S1130CF0B0939F01E0914002F0914102309739F0A6
S1130D0062E070E08091A8019091A90109950E9488
S1130D101B05FF91EF91BF91AF919F918F917F91AF
S1130D206F915F914F913F912F911F910F910F9070
S1130D300FBE0F901F9018951F920F920FB60F922F
S1130D4011240F931F932F933F934F935F936F93AC
S1130D507F938F939F93AF93BF93EF93FF93809170
S1130D609A0190919B01AC01092E000C660B770B44
S1130D709A0111270027409184005091850060E07A
S1130D8070E0402B512B622B732B40939C015093AA
S1130D909D0160939E0170939F01B09B1AC00196C0
S1130DA0092E000CAA0BBB0BBC01552744278091CC
S1130DB0840090918500A0E0B0E0842B952BA62BB5
S1130DC0B72B80939C0190939D01A0939E01B093B7
S1130DD09F01E0914202F0914302309739F063E0C1
S1130DE070E08091AA019091AB0109950E941B05C6
S1130DF0FF91EF91BF91AF919F918F917F916F91EF
S1130E005F914F913F912F911F910F910F900FBEC2
S1130E100F901F9018951F920F920FB60F921124E6
S1130E200F931F932F933F934F935F936F937F93EE
S1130E308F939F93AF93BF93EF93FF9380919A0106
S1130E4090919B01AC01092E000C660B770B9A0163
S1130E5011270027409184005091850060E070E0E4
S1130E60402B512B622B732B40939C0150939D017B
S1130E7060939E0170939F01B09B1AC00196092E46
S1130E80000CAA0BBB0BBC0155274427809184009E
S1130E9090918500A0E0B0E0842B952BA62BB72B76
S1130EA080939C0190939D01A0939E01B0939F0118
S1130EB0E0914402F0914502309739F064E070E02B
S1130EC08091AC019091AD0109950E941B05FF91A1
S1130ED0EF91BF91AF919F918F917F916F915F91AE
S1130EE04F913F912F911F910F910F900FBE0F9033
S1130EF01F9018951F920F920FB60F9211240F9303
S1130F001F932F933F934F935F936F937F938F938D
S1130F109F93AF93BF93EF93FF9380919A01909126
S1130F209B01AC01092E000C660B770B9A0111276B
S1130F300027409184005091850060E070E0402BD0
S1130F40512B622B732B40939C0150939D01609312
S1130F509E0170939F01B09B1AC00196092E000C4C
S1130F60AA0BBB0BBC0155274427809184009091A8
S1130F708500A0E0B0E0842B952BA62BB72B8093A3
S1130F809C0190939D01A0939E01B0939F01E091D9
S1130F904602F0914702309739F065E070E08091A5
S1130FA0AE019091AF0109950E941B05FF91EF914D
S1130FB0BF91AF919F918F917F916F915F914F916D
S1130FC03F912F911F910F910F900FBE0F901F9083
S1130FD018951F920F920FB60F9211240F931F931F
S1130FE02F933F934F935F936F937F938F939F932D
S1130FF0AF93BF93EF93FF9380919A0190919B01DC
S1131000AC01092E000C660B770B9A0111270027FF
S1131010409184005091850060E070E0402B512B9A
S1131020622B732B40939C0150939D0160939E010E
S113103070939F01B09B1AC00196092E000CAA0B55
S1131040BB0BBC01552744278091840090918500F7
S1131050A0E0B0E0842B952BA62BB72B80939C01AA
S113106090939D01A0939E01B0939F01E09148024B
S1131070F0914902309739F066E070E08091B00158
S11310809091B10109950E941B05FF91EF91BF91C9
S1131090AF919F918F917F916F915F914F913F910C
S11310A02F911F910F910F900FBE0F901F901895C5
S11310B01F920F920FB60F9211240F931F932F9329
S11310C03F934F935F936F937F938F939F93AF93CC
S11310D0BF93EF93FF9380919A0190919B01AC0190
S11310E0092E000C660B770B9A01112700274091FB
S11310F084005091850060E070E0402B512B622BFE
S1131100732B40939C0150939D0160939E017093B7
S11311109F01B09B1AC00196092E000CAA0BBB0BB1
S1131120BC01552744278091840090918500A0E05C
S1131130B0E0842B952BA62BB72B80939C01909326
S11311409D01A0939E01B0939F01E0914A02F0910A
S11311504B02309739F067E070E08091B2019091D2
S1131160B30109950E941B05FF91EF91BF91AF91C7
S11311709F918F917F916F915F914F913F912F91AB
S11311801F910F910F900FBE0F901F9018951F92F3
S11311900F920FB60F9211240F931F932F933F9327
S11311A04F935F936F937F938F939F93AF93BF936B
S11311B0EF93FF9380919A0190919B01AC01092ECA
S11311C0000C660B770B9A011127002740918400CD
S11311D05091850060E070E0402B512B622B732B03
S11311E040939C0150939D0160939E0170939F01D5
S11311F0B09B1AC00196092E000CAA0BBB0BBC01B4
S1131200552744278091840090918500A0E0B0E0A8
S1131210842B952BA62BB72B80939C0190939D0137
S1131220A0939E01B0939F01E0914C02F0914D0276
S1131230309739F068E070E08091B4019091B50185
S113124009950E941B05FF91EF91BF91AF919F916A
S11312508F917F916F915F914F913F912F911F914A
S11312600F910F900FBE0F901F9018951F920F9221
S11312700FB60F9211240F931F932F933F934F9305
S11312805F936F937F938F939F93AF93BF93EF93EA
S1131290FF9380919A0190919B01AC01092E000C5F
S11312A0660B770B9A011127002740918400509117
S11312B0850060E070E0402B512B622B732B409330
S11312C09C0150939D0160939E0170939F01B09B7C
S11312D01AC00196092E000CAA0BBB0BBC015527A2
S11312E044278091840090918500A0E0B0E0842B95
S11312F0952BA62BB72B80939C0190939D01A093D3
S11313009E01B0939F01E0914E02F0914F023097FD
S113131039F069E070E08091B6019091B7010995C8
S11313200E941B05FF91EF91BF91AF919F918F9107
S11313307F916F915F914F913F912F911F910F91E9
S11313400F900FBE0F901F9018951F920F920FB61B
S11313500F9211240F931F932F933F934F935F93F7
S11313606F937F938F939F93AF93BF93EF93FF9369
S113137080919A0190919B01AC01092E000C660B9F
S1131380770B9A0111270027409184005091850022
S113139060E070E0402B512B622B732B40939C0137
S11313A050939D0160939E0170939F01B09B1AC05E
S11313B00196092E000CAA0BBB0BBC015527442730
S11313C08091840090918500A0E0B0E0842B952B5F
S11313D0A62BB72B80939C0190939D01A0939E0113
S11313E0B0939F01E0915002F0915102309739F08F
S11313F06AE070E08091B8019091B90109950E946A
S11314001B05FF91EF91BF91AF919F918F917F91B8
S11314106F915F914F913F912F911F910F910F9079
S11314200FBE0F901F9018951F920F920FB60F9238
S113143011240F931F932F933F934F935F936F93B5
S11314407F938F939F93AF93BF93EF93FF93809179
S11314509A0190919B01AC01092E000C660B770B4D
S11314609A0111270027409184005091850060E083
S113147070E0402B512B622B732B40939C015093B3
S11314809D0160939E0170939F01B09B1AC00196C9
S1131490092E000CAA0BBB0BBC01552744278091D5
S11314A0840090918500A0E0B0E0842B952BA62BBE
S11314B0B72B80939C0190939D01A0939E01B093C0
S11314C09F01E0915202F0915302309739F06BE0A2
S11314D070E08091BA019091BB0109950E941B05AF
S11314E0FF91EF91BF91AF919F918F917F916F91F8
S11314F05F914F913F912F911F910F910F900FBECC
S11315000F901F9018951F920F920FB60F921124EF
S11315100F931F932F933F934F935F936F937F93F7
S11315208F939F93AF93BF93EF93FF9380919A010F
S113153090919B01AC01092E000C660B770B9A016C
S113154011270027409184005091850060E070E0ED
S1131550402B512B622B732B40939C0150939D0184
S113156060939E0170939F01B09B1AC00196092E4F
S1131570000CAA0BBB0BBC015527442780918400A7
S113158090918500A0E0B0E0842B952BA62BB72B7F
S113159080939C0190939D01A0939E01B0939F0121
S11315A0E0915402F0915502309739F06CE070E00C
S11315B08091BC019091BD0109950E941B05FF918A
S11315C0EF91BF91AF919F918F917F916F915F91B7
S11315D04F913F912F911F910F910F900FBE0F903C
S11315E01F9018951F920F920FB60F9211240F930C
S11315F01F932F933F934F935F936F937F938F9397
S11316009F93AF93BF93EF93FF9380919A0190912F
S11316109B01AC01092E000C660B770B9A01112774
S11316200027409184005091850060E070E0402BD9
S1131630512B622B732B40939C0150939D0160931B
S11316409E0170939F01B09B1AC00196092E000C55
S1131650AA0BBB0BBC0155274427809184009091B1
S11316608500A0E0B0E0842B952BA62BB72B8093AC
S11316709C0190939D01A0939E01B0939F01E091E2
S11316805602F0915702309739F06DE070E0809186
S1131690BE019091BF0109950E941B05FF91EF9136
S11316A0BF91AF919F918F917F916F915F914F9176
S11316B03F912F911F910F910F900FBE0F901F908C
S11316C018951F920F920FB60F9211240F931F9328
S11316D02F933F934F935F936F937F938F939F9336
S11316E0AF93BF93EF93FF9380919A0190919B01E5
S11316F0AC01092E000C660B770B9A011127002709
S1131700409184005091850060E070E0402B512BA3
S1131710622B732B40939C0150939D0160939E0117
S113172070939F01B09B1AC00196092E000CAA0B5E
S1131730BB0BBC0155274427809184009091850000
S1131740A0E0B0E0842B952BA62BB72B80939C01B3
S113175090939D01A0939E01B0939F01E091580244
S1131760F0915902309739F06EE070E08091C00139
S11317709091C10109950E941B05FF91EF91BF91C2
S1131780AF919F918F917F916F915F914F913F9115
S11317902F911F910F910F900FBE0F901F901895CE
S11317A01F920F920FB60F9211240F931F932F9332
S11317B03F934F935F936F937F938F939F93AF93D5
S11317C0BF93EF93FF9380919A0190919B01AC0199
S11317D0092E000C660B770B9A0111270027409104
S11317E084005091850060E070E0402B512B622B07
S11317F0732B40939C0150939D0160939E017093C1
S11318009F01B09B1AC00196092E000CAA0BBB0BBA
S1131810BC01552744278091840090918500A0E065
S1131820B0E0842B952BA62BB72B80939C0190932F
S11318309D01A0939E01B0939F01E0915A02F09103
S11318405B02309739F06FE070E08091C2019091B3
S1131850C30109950E941B05FF91EF91BF91AF91C0
S11318609F918F917F916F915F914F913F912F91B4
S11318701F910F910F900FBE0F901F9018951F92FC
S11318800F920FB60F9211240F931F932F933F9330
S11318904F935F936F937F938F939F93AF93BF9374
S11318A0EF93FF9380919A0190919B01AC01092ED3
S11318B0000C660B770B9A011127002740918400D6
S11318C05091850060E070E0402B512B622B732B0C
S11318D040939C0150939D0160939E0170939F01DE
S11318E0B09B1AC00196092E000CAA0BBB0BBC01BD
S11318F0552744278091840090918500A0E0B0E0B2
S1131900842B952BA62BB72B80939C0190939D0140
S1131910A0939E01B0939F01E0915C02F0915D025F
S1131920309739F060E170E08091C4019091C50175
S113193009950E941B05FF91EF91BF91AF919F9173
S11319408F917F916F915F914F913F912F911F9153
S11319500F910F900FBE0F901F9018951F920F922A
S11319600FB60F9211240F931F932F933F934F930E
S11319705F936F937F938F939F93AF93BF93EF93F3
S1131980FF9380919A0190919B01AC01092E000C68
S1131990660B770B9A011127002740918400509120
S11319A0850060E070E0402B512B622B732B409339
S11319B09C0150939D0160939E0170939F01B09B85
S11319C01AC00196092E000CAA0BBB0BBC015527AB
S11319D044278091840090918500A0E0B0E0842B9E
S11319E0952BA62BB72B80939C0190939D01A093DC
S11319F09E01B0939F01E0915E02F0915F023097E7
S1131A0039F061E170E08091C6019091C7010995B8
S1131A100E941B05FF91EF91BF91AF919F918F9110
S1131A207F916F915F914F913F912F911F910F91F2
S1131A300F900FBE0F901F9018950E941B0578946D
S1131A4081E083BF8895FCCF1F920F920FB60F924F
S1131A5011242F933F934F935F936F937F938F93AF
S1131A609F93EF93FF9380919A0190919B0101962C
S1131A7090939B0180939A01E091A001F091A101C0
S1131A80309701F1428153816481758186179707EC
S1131A90C9F4CA012091840030918500421B530B84
S1131AA04130510529F4809184009091850001967C
S1131AB09093890080938800EFE6F0E08081826053
S1131AC0808305C0EFE6F0E080818D7F8083FF9105
S1131AD0EF919F918F917F916F915F914F913F9182
S1131AE02F910F900FBE0F901F9018951F920F9279
S1131AF00FB60F921124CF92DF92EF92FF922F93A1
S1131B003F934F935F936F937F938F939F93AF9381
S1131B10BF93EF93FF9380919A0190919B016C0185
S1131B20092E000CEE08FF087601DD24CC24409138
S1131B3084005091850060E070E0C42AD52AE62A2A
S1131B40F72AB09B1EC06C012FEFC21AD20A0D2CCB
S1131B50000CEE08FF08D60199278827C09084005E
S1131B60D0908500E12CF12CC82AD92AEA2AFB2A34
S1131B7008C080EA91E00E94E60462EA71E00E94F3
S1131B808404E091A001F091A101309769F0828171
S1131B909381A481B5818C199D09AE09BF091816DA
S1131BA019061A061B062CF7309721F182819381BE
S1131BB0A481B58120919A0130919B012A173B079A
S1131BC0C9F49C014091840050918500841B950BBD
S1131BD0019731F420918400309185002F5F3F4FAD
S1131BE03093890020938800EFE6F0E080818260E2
S1131BF0808305C0EFE6F0E080818D7F80830E94C2
S1131C001B05FF91EF91BF91AF919F918F917F91B0
S1131C106F915F914F913F912F91FF90EF90DF90E3
S1131C20CF900F900FBE0F901F9018953F924F9238
S1131C305F926F927F928F929F92AF92BF92CF9258
S1131C40DF92EF92FF920F931F93CF93DF932B01B9
S1131C503C0149015A018FB78078382EF89488E7FF
S1131C6091E00E94E604EC011B870A87FD86EC865E
S1131C70DF86CE86332061F0E0917201F09173012A
S1131C800280F381E02D82819381A481B58108C013
S1131C9080919C0190919D01A0919E01B0919F0122
S1131CA0480E591E6A1E7B1E4A825B826C827D82AC
S1131CB0181419041A041B0444F00F2E88248A945F
S1131CC0982CA82CFFE7BF2EF02D840C951CA61C85
S1131CD0B71C8E829F82A886B98620919A01309182
S1131CE09B01C901032E000CAA0BBB0BDC01992735
S1131CF08827409184005091850060E070E0842B37
S1131D00952BA62BB72BB09B13C0C9010196092EA6
S1131D10000CAA0BBB0BDC01992788274091840097
S1131D205091850060E070E0842B952BA62BB72B97
S1131D30481A590A6A0A7B0A14141504160417046B
S1131D40ACF560EA71E0CE010E94B504E091A00117
S1131D50F091A101309721F182819381A481B58111
S1131D6020919A0130919B012A173B07C9F49C01E9
S1131D704091840050918500841B950B019731F4A8
S1131D8020918400309185002F5F3F4F309389006C
S1131D9020938800EFE6F0E080818260808339C080
S1131DA0EFE6F0E080818D7F808333C062EA71E0EA
S1131DB0CE010E948404332061F1809176019091D8
S1131DC07701892B31F1E091A201F091A301868181
S1131DD09781A085B185E0917401F091750102802D
S1131DE0F381E02D4681578160857185841B950BB5
S1131DF0A60BB70B72F486E791E00E94110564E725
S1131E0071E00E94070580917401909175010E9410
S1131E106404332009F07894CE01DF91CF911F91AF
S1131E200F91FF90EF90DF90CF90BF90AF909F9075
S1131E308F907F906F905F904F903F900895CF92D6
S1131E40DF92EF92FF920F931F93CF93DF93EC01F6
S1131E507B016A011FB71078F894A881B9811097A3
S1131E6019F435C0A081B1811496ED91FC911597B8
S1131E703097C1F72091720130917301A217B30713
S1131E8011F0111107C0112309F44AC078948FEF9F
S1131E909FEF4EC08A819B81009719F0FC01158247
S1131EA014823B832A83F901D583C483CD010E9424
S1131EB06404E0917201F091730182819381892B12
S1131EC031F4112381F1789480E090E031C0809165
S1131ED072019091730199838883112329F08A8177
S1131EE09B81019709F07894B601CE01F701099519
S1131EF0F82E092F8FB7F894198218828A819B8152
S1131F008230910538F01B821A82FC0115821482FA
S1131F100E946404112351F078948F2D902F08C0EF
S1131F208FEF9FEF05C080E090E002C08F2D902FCF
S1131F30DF91CF911F910F91FF90EF90DF90CF90A1
S1131F400895009172011091730182EA91E00E9458
S1131F50E604EC01F8019383828378946C857D8593
S1131F604E855F858A859B850E941F0F8FB7F894E5
S1131F7068E771E0CE010E94FD04E0917401F091E4
S1131F8075010190F081E02DC281D381E091A2011D
S1131F90F091A3013097A1F0209799F2868197815F
S1131FA0A085B1854E815F8168857985841B950BF9
S1131FB0A60BB70B181619061A061B060CF0C1CF90
S1131FC084E791E00E94110566E771E00E9407052D
S1131FD0A0917401B091750102C0A081B1811496E1
S1131FE0ED91FC9115973097C1F7CD010E946404DF
S1131FF0A8CFFC014231B8F49FB79078F89450E030
S1132000440F551FDA01AC55BE4FED93FC93DA0132
S1132010A45CBD4F6D937C9321E030E03383228335
S1132020992309F0789408958C017B016A018FB794
S1132030F8940E94C5037894E114F10441F020E07F
S113204030E0A90160E070E0CB010E94160E8FB76A
S1132050F8940E941D0D5058BB27AA270E944310D4
S11320600C9462110E94541138F00E945B1120F00C
S113207039F49F3F19F426F40C9451110EF4E095B1
S1132080E7FB0C942211E92F0E94731158F3BA173D
S1132090620773078407950720F079F4A6F50C947A
S11320A0AD110EF4E0950B2EBA2FA02D0B01B90142
S11320B090010C01CA01A0011124FF27591B99F0BA
S11320C0593F50F4503E68F11A16F040A22F232FC6
S11320D0342F4427585FF3CF469537952795A79516
S11320E0F0405395C9F77EF41F16BA0B620B730BBD
S11320F0840BBAF09150A1F0FF0FBB1F661F771F2E
S1132100881FC2F70EC0BA0F621F731F841F48F4E2
S1132110879577956795B795F7959E3F08F0B0CF6B
S11321209395880F08F09927EE0F97958795089552
S11321300E949F106894B1110C94AE1108950E94EE
S11321407B1188F09F5798F0B92F9927B751B0F0B9
S1132150E1F0660F771F881F991F1AF0BA95C9F727
S113216014C0B13091F00E94AD11B1E008950C9407
S1132170AD11672F782F8827B85F39F0B93FCCF3BA
S1132180869577956795B395D9F73EF490958095A4
S1132190709561957F4F8F4F9F4F0895E89409C0C4
S11321A097FB3EF490958095709561957F4F8F4F86
S11321B09F4F9923A9F0F92F96E9BB279395F6959C
S11321C0879577956795B795F111F8CFFAF4BB0F1A
S11321D011F460FF1BC06F5F7F4F8F4F9F4F16C07E
S11321E0882311F096E911C0772321F09EE8872F08
S11321F0762F05C0662371F096E8862F70E060E0C4
S11322002AF09A95660F771F881FDAF7880F96953C
S1132210879597F908950E94951190F09F3748F497
S1132220911116F00C94AE1160E070E080E89FEB21
S1132230089526F41B16611D711D811D0C9428112F
S11322400C94431197F99F6780E870E060E008956B
S1132250882371F4772321F09850872B762F07C0B9
S1132260662311F499270DC09051862B70E060E02D
S11322702AF09A95660F771F881FDAF7880F9695CC
S1132280879597F908959F3F31F0915020F48795F1
S113229077956795B795880F911D9695879597F9CA
S11322A008959FEF80EC089500240A9416161706EB
S11322B018060906089500240A9412161306140633
S11322C005060895092E0394000C11F4882352F096
S11322D0BB0F40F4BF2B11F460FF04C06F5F7F4F4E
S11322E08F4F9F4F089557FD9058440F551F59F035
S11322F05F3F71F04795880F97FB991F61F09F3FEF
S113230079F087950895121613061406551FF2CF17
S11323104695F1DF08C0161617061806991FF1CF67
S1132320869571056105089408950E947B11A0F0BB
S1132330BEE7B91788F4BB279F3860F41616B11DA1
S1132340672F782F8827985FF7CF869577956795BD
S1132350B11D93959639C8F30895E894BB27662771
S11323607727CB0197F90895052E97FB1EF4009467
S11323700E94CB1157FD07D00E94D31107FC03D054
S11323804EF40C94CB1150954095309521953F4FC8
S11323904F4F5F4F089590958095709561957F4F4D
S11323A08F4F9F4F0895A1E21A2EAA1BBB1BFD015C
S11323B00DC0AA1FBB1FEE1FFF1FA217B307E40720
S11323C0F50720F0A21BB30BE40BF50B661F771F78
S11323D0881F991F1A9469F7609570958095909558
S11323E09B01AC01BD01CF010895DC012D923D920A
S11323F04D925D926D927D928D929D92AD92BD9221
S1132400CD92DD92ED92FD920D931D93CD93DD93CC
S1132410FF91EF918DB78D938EB78D938FB78D9379
S1132420ED93FD93882799270994DC01CB01813032
S11324309105811D2D903D904D905D906D907D9006
S11324408D909D90AD90BD90CD90DD90ED90FD90E0
S11324500D911D91CD91DD91ED91FD910D90F8942B
S1132460FEBF0FBEEDBFED91FD910994F894FFCF2F
S1132470010005000500010000000100010000004A
S1132480010001000E000100010001000B00010029
S1132490000005000B000000010004000B00010017
S11324A0010004000F000100010001000100000010
S11324B0010005000F000100010005000B000100F0
S11324C0EC00ED00EE00EF00F100F200F300F40088
S11324D0F600F700F800F900FB00FC00FD00FE0028
S11324E0010060026002C8017D02000000000000DB
S11324F001000100000000000000000001000400D1
S1092500010000000000D0
S9030524D3
