S00D00004C616220342E73726563B4
S11300000C942E000C9487030C94F6030C94650452
S11300100C94D4040C9443050C944B000C94AE0B38
S11300200C944B000C945C0B0C94B2050C942106BC
S11300300C9490060C94FF060C946E070C94DD0748
S11300400C944C080C94BB080C942A090C94990940
S11300500C94080A0C94770A0C94E60A11241FBE27
S1130060CFEFD4E0DEBFCDBF11E0A0E0B1E0E4E427
S1130070F1E202C005900D92A830B107D9F724E04F
S1130080A8E0B1E001C01D92AF35B207E1F70E94CC
S1130090BB000C94A0100C940000CF92DF92EF925E
S11300A0FF920F931F931E9914C0FC0104811581C4
S11300B0C12CD12C0F2EF8EAEF2EF1E0FF2EF02DFB
S11300C020E030E0A90160E070E0CB010E944E0C1A
S11300D02BC01F9914C0FC0104811581C12CD12CA3
S11300E00F2EF5ECEF2EF1E0FF2EF02D20E030E0A6
S11300F0A90160E070E0CB010E944E0C15C01C9970
S113010013C0FC0104811581C12CD12C0F2EFCEEEF
S1130110EF2EF1E0FF2EF02D20E030E0A90160E0A9
S113012070E0CB010E944E0C1F910F91FF90EF9055
S1130130DF90CF900895CF92DF92EF92FF920F93CA
S11301401F93FC0104811581C12CD12C0F2EFAE3DD
S1130150EF2EF1E0FF2EF02D20E030E0A90160E069
S113016070E0CB010E944E0C1F910F91FF90EF9015
S1130170DF90CF900895CF93DF93CDB7DEB76A9722
S11301800FB6F894DEBF0FBECDBF80ED85B98CE00D
S11301908EB98FEF80936C0080936B008DB3806C6D
S11301A08DBB1A8219821C821B821E821D821886B4
S11301B01F821A8619861C861B8680E090E0A0E0C8
S11301C0BFE38D879E87AF87B88B81E090E09A8BE1
S11301D0898BCE0101969C8B8B8B1E8A1D8A188E6F
S11301E01F8A06969A8F898F42E06DE470E00E961E
S11301F00E94310E40E050E06BE970E0CE0145967C
S11302000E944C0E6A960FB6F894DEBF0FBECDBFA7
S1130210DF91CF910895FC0124813581213031058E
S113022069F46115710511F41EB804C061307105DB
S113023009F41EB8FC01158214820895232B79F465
S11302406115710511F420E12EB96130710511F4C5
S113025020E42EB921E030E0FC01358324830895A5
S11302606115710511F41EB808956130710509F422
S11302701EB80895CF92DF92EF92FF920F931F93CF
S1130280CF93DF93EC010A851B850130110509F03A
S113029042C0CE80DF80E884F98420E030E0A90108
S11302A0C701B6010E94C90F1816ACF5C701B60103
S11302B00E94420F70930B0160930A018C819D810F
S11302C0909309018093080160E070E08C859D851E
S11302D00E940B012E813F814885598560E074E2BC
S11302E084EF96E40E94D00E20E030E040E05FE32B
S11302F00E94CE0F0E94420FC12CD12C0F2EFAE384
S1130300EF2EF1E0FF2EF02D8E0120E030E0A90168
S11303100E944E0C14C0012B91F40C851D85CC80D9
S1130320DD800F2EF0E3EF2EF1E0FF2EF02D20E024
S113033030E0A90160E070E0CB010E944E0CDF9137
S1130340CF911F910F91FF90EF90DF90CF90089580
S1130350CF93DF93EC0180910A0190910B010196F8
S113036090930B0180930A016E817F818885998522
S113037020E030E040E85FE30E94640E6E837F83F8
S113038088879987DF91CF910895CF92DF92EF927A
S1130390FF92CF93DF93EC01CE80DF80E884F98471
S11303A020E030E0A901C701B6010E94C90F181668
S11303B064F420E030E040E85FE3C701B6010E9446
S11303C0630E6E837F8388879987DF91CF91FF9037
S11303D0EF90DF90CF900895FC0122853385213082
S11303E0310519F4138612860895232B29F421E08C
S11303F030E0FC01338722870895CF93DF9300D048
S113040000D0CDB7DEB780E090E018C0AC014F5FFC
S11304105F4F9A0122953295307F3227207F322711
S113042021513E4F82959295907F9827807F9827FF
S1130430FC01E151FE4F31832083CA018E309105C6
S11304402CF31092D0021092CF0280E090E015C0FD
S1130450AC014F5F5F4F6DE1649F9001659F300D6C
S11304601124265C3E4F689FF001699FF00D112412
S1130470E65CFE4F31832083CA018330910544F347
S113048010929201109291011A82198232C02DE1C8
S113049049815A81249FC001259F900D1124FC019C
S11304A0E05CFE4FFC83EB83CF010E945F1020E6EB
S11304B049815A81249FC001259F900D1124855C98
S11304C09C4FEB81FC81918B808B938B828B89ED8C
S11304D09DE0968B858B8DE1849FF001859FF00DC7
S11304E01124E65CFE4F158214824F5F5F4F5A83DE
S11304F0498329813A81243031054CF2E2EDF1E05F
S1130500118210821582148213821282E1E6F0E0D5
S113051080E880831082109285001092840084E029
S11305208093810081E080936F000F900F900F9073
S11305300F90DF91CF910895CF93DF9300D0CDB783
S1130540DEB79A8389838091000190910101069618
S11305500E945F10892B59F489819A81909301013B
S11305608093000161E070E006960E947F100F9076
S11305700F90DF91CF9108950F931F93CF93DF9343
S1130580DC01CB01EB01E881F981C0E0D0E004C0DB
S1130590EF010190F081E02D309779F00681178109
S11305A02085318516964D915D916D917C911997B9
S11305B040175107620773075CF71196FC93EE939B
S11305C0209721F4FC01B183A08302C0B983A883DE
S11305D0DF91CF911F910F9108950F931F93CF93A4
S11305E0DF93DC01CB01EB01E881F981C0E0D0E0CD
S11305F004C0EF010190F081E02D309779F0028181
S113060013812481358112964D915D916D917C9178
S1130610159740175107620773075CF71196FC930F
S1130620EE93209721F4FC01B183A08302C0B98327
S1130630A883DF91CF911F910F910895DC01ED9173
S1130640FC911197309759F48FEF8093EC008093CD
S1130650ED008093EE0081E083BF8895FCCF20817C
S113066031812D933C93CF010895FB012081318189
S1130670FC0131832083FB01918380830895FB0176
S113068020813181FC0131832083FB0191838083AC
S11306900895DC01ED91FC911197208131812D9316
S11306A03C93CF010895CF93DF93E0910201F09141
S11306B00301C281D381E0911401F09115013097B7
S11306C019F18091040190910501892BE9F020979B
S11306D069F086819781A085B1854E815F816885A7
S11306E07985841B950BA60BB70B72F484E091E01B
S11306F00E94490362E071E00E943F03809102017D
S1130700909103010E949C02DF91CF9108951F9262
S11307100F920FB60F9211240F931F932F933F93B1
S11307204F935F936F937F938F939F93AF93BF93F5
S1130730EF93FF9380910C0190910D01AC01092E70
S1130740000C660B770B9A01112700274091840057
S11307505091850060E070E0402B512B622B732B8D
S113076040930E0150930F01609310017093110197
S1130770B09B1AC00196092E000CAA0BBB0BBC013E
S1130780552744278091840090918500A0E0B0E033
S1130790842B952BA62BB72B80930E0190930F01DE
S11307A0A0931001B0931101E091AE01F091AF015B
S11307B0309739F060E070E0809116019091170154
S11307C009950E945303FF91EF91BF91AF919F91BF
S11307D08F917F916F915F914F913F912F911F91D5
S11307E00F910F900FBE0F901F9018951F920F92AC
S11307F00FB60F9211240F931F932F933F934F9390
S11308005F936F937F938F939F93AF93BF93EF9374
S1130810FF9380910C0190910D01AC01092E000C05
S1130820660B770B9A0111270027409184005091A1
S1130830850060E070E0402B512B622B732B4093BA
S11308400E0150930F016093100170931101B09B3E
S11308501AC00196092E000CAA0BBB0BBC0155272C
S113086044278091840090918500A0E0B0E0842B1F
S1130870952BA62BB72B80930E0190930F01A09379
S11308801001B0931101E091B001F091B1013097E2
S113089039F061E070E08091180190911901099597
S11308A00E945303FF91EF91BF91AF919F918F915C
S11308B07F916F915F914F913F912F911F910F9174
S11308C00F900FBE0F901F9018951F920F920FB6A6
S11308D00F9211240F931F932F933F934F935F9382
S11308E06F937F938F939F93AF93BF93EF93FF93F4
S11308F080910C0190910D01AC01092E000C660B46
S1130900770B9A01112700274091840050918500AC
S113091060E070E0402B512B622B732B40930E014F
S113092050930F016093100170931101B09B1AC092
S11309300196092E000CAA0BBB0BBC0155274427BA
S11309408091840090918500A0E0B0E0842B952BE9
S1130950A62BB72B80930E0190930F01A093100147
S1130960B0931101E091B201F091B301309739F0E5
S113097062E070E080911A0190911B0109950E9438
S11309805303FF91EF91BF91AF919F918F917F910D
S11309906F915F914F913F912F911F910F910F9004
S11309A00FBE0F901F9018951F920F920FB60F92C3
S11309B011240F931F932F933F934F935F936F9340
S11309C07F938F939F93AF93BF93EF93FF93809104
S11309D00C0190910D01AC01092E000C660B770BF4
S11309E09A0111270027409184005091850060E00E
S11309F070E0402B512B622B732B40930E015093CC
S1130A000F016093100170931101B09B1AC00196FD
S1130A10092E000CAA0BBB0BBC015527442780915F
S1130A20840090918500A0E0B0E0842B952BA62B48
S1130A30B72B80930E0190930F01A0931001B093F4
S1130A401101E091B401F091B501309739F063E000
S1130A5070E080911C0190911D0109950E9453033F
S1130A60FF91EF91BF91AF919F918F917F916F9182
S1130A705F914F913F912F911F910F910F900FBE56
S1130A800F901F9018951F920F920FB60F9211247A
S1130A900F931F932F933F934F935F936F937F9382
S1130AA08F939F93AF93BF93EF93FF9380910C0128
S1130AB090910D01AC01092E000C660B770B9A0185
S1130AC011270027409184005091850060E070E078
S1130AD0402B512B622B732B40930E0150930F012B
S1130AE06093100170931101B09B1AC00196092EF6
S1130AF0000CAA0BBB0BBC01552744278091840032
S1130B0090918500A0E0B0E0842B952BA62BB72B09
S1130B1080930E0190930F01A0931001B0931101E3
S1130B20E091B601F091B701309739F064E070E0DC
S1130B3080911E0190911F0109950E945303FF911A
S1130B40EF91BF91AF919F918F917F916F915F9141
S1130B504F913F912F911F910F910F900FBE0F90C6
S1130B601F9018951F920F920FB60F9211240F9396
S1130B701F932F933F934F935F936F937F938F9321
S1130B809F93AF93BF93EF93FF9380910C01909148
S1130B900D01AC01092E000C660B770B9A0111278D
S1130BA00027409184005091850060E070E0402B64
S1130BB0512B622B732B40930E0150930F016093C2
S1130BC0100170931101B09B1AC00196092E000CFC
S1130BD0AA0BBB0BBC01552744278091840090913C
S1130BE08500A0E0B0E0842B952BA62BB72B809337
S1130BF00E0190930F01A0931001B0931101E091A5
S1130C00B801F091B901309739F065E070E0809156
S1130C1020019091210109950E945303FF91EF91C6
S1130C20BF91AF919F918F917F916F915F914F9100
S1130C303F912F911F910F910F900FBE0F901F9016
S1130C4018951F920F920FB60F9211240F931F93B2
S1130C502F933F934F935F936F937F938F939F93C0
S1130C60AF93BF93EF93FF9380910C0190910D018B
S1130C70AC01092E000C660B770B9A011127002793
S1130C80409184005091850060E070E0402B512B2E
S1130C90622B732B40930E0150930F01609310014C
S1130CA070931101B09B1AC00196092E000CAA0B77
S1130CB0BB0BBC015527442780918400909185008B
S1130CC0A0E0B0E0842B952BA62BB72B80930E01CC
S1130CD090930F01A0931001B0931101E091BA0118
S1130CE0F091BB01309739F066E070E08091220109
S1130CF09091230109950E945303FF91EF91BF91B5
S1130D00AF919F918F917F916F915F914F913F919F
S1130D102F911F910F910F900FBE0F901F90189558
S1130D201F920F920FB60F9211240F931F932F93BC
S1130D303F934F935F936F937F938F939F93AF935F
S1130D40BF93EF93FF9380910C0190910D01AC013F
S1130D50092E000C660B770B9A011127002740918E
S1130D6084005091850060E070E0402B512B622B91
S1130D70732B40930E0150930F01609310017093F5
S1130D801101B09B1AC00196092E000CAA0BBB0BD3
S1130D90BC01552744278091840090918500A0E0F0
S1130DA0B0E0842B952BA62BB72B80930E01909348
S1130DB00F01A0931001B0931101E091BC01F091D7
S1130DC0BD01309739F067E070E080912401909183
S1130DD0250109950E945303FF91EF91BF91AF91B3
S1130DE09F918F917F916F915F914F913F912F913F
S1130DF01F910F910F900FBE0F901F9018951F9287
S1130E000F920FB60F9211240F931F932F933F93BA
S1130E104F935F936F937F938F939F93AF93BF93FE
S1130E20EF93FF9380910C0190910D01AC01092E79
S1130E30000C660B770B9A01112700274091840060
S1130E405091850060E070E0402B512B622B732B96
S1130E5040930E0150930F016093100170931101A0
S1130E60B09B1AC00196092E000CAA0BBB0BBC0147
S1130E70552744278091840090918500A0E0B0E03C
S1130E80842B952BA62BB72B80930E0190930F01E7
S1130E90A0931001B0931101E091BE01F091BF0144
S1130EA0309739F068E070E0809126019091270135
S1130EB009950E945303FF91EF91BF91AF919F91C8
S1130EC08F917F916F915F914F913F912F911F91DE
S1130ED00F910F900FBE0F901F9018951F920F92B5
S1130EE00FB60F9211240F931F932F933F934F9399
S1130EF05F936F937F938F939F93AF93BF93EF937E
S1130F00FF9380910C0190910D01AC01092E000C0E
S1130F10660B770B9A0111270027409184005091AA
S1130F20850060E070E0402B512B622B732B4093C3
S1130F300E0150930F016093100170931101B09B47
S1130F401AC00196092E000CAA0BBB0BBC01552735
S1130F5044278091840090918500A0E0B0E0842B28
S1130F60952BA62BB72B80930E0190930F01A09382
S1130F701001B0931101E091C001F091C1013097CB
S1130F8039F069E070E08091280190912901099578
S1130F900E945303FF91EF91BF91AF919F918F9165
S1130FA07F916F915F914F913F912F911F910F917D
S1130FB00F900FBE0F901F9018951F920F920FB6AF
S1130FC00F9211240F931F932F933F934F935F938B
S1130FD06F937F938F939F93AF93BF93EF93FF93FD
S1130FE080910C0190910D01AC01092E000C660B4F
S1130FF0770B9A01112700274091840050918500B6
S113100060E070E0402B512B622B732B40930E0158
S113101050930F016093100170931101B09B1AC09B
S11310200196092E000CAA0BBB0BBC0155274427C3
S11310308091840090918500A0E0B0E0842B952BF2
S1131040A62BB72B80930E0190930F01A093100150
S1131050B0931101E091C201F091C301309739F0CE
S11310606AE070E080912A0190912B0109950E9419
S11310705303FF91EF91BF91AF919F918F917F9116
S11310806F915F914F913F912F911F910F910F900D
S11310900FBE0F901F9018951F920F920FB60F92CC
S11310A011240F931F932F933F934F935F936F9349
S11310B07F938F939F93AF93BF93EF93FF9380910D
S11310C00C0190910D01AC01092E000C660B770BFD
S11310D09A0111270027409184005091850060E017
S11310E070E0402B512B622B732B40930E015093D5
S11310F00F016093100170931101B09B1AC0019607
S1131100092E000CAA0BBB0BBC0155274427809168
S1131110840090918500A0E0B0E0842B952BA62B51
S1131120B72B80930E0190930F01A0931001B093FD
S11311301101E091C401F091C501309739F06BE0E1
S113114070E080912C0190912D0109950E94530328
S1131150FF91EF91BF91AF919F918F917F916F918B
S11311605F914F913F912F911F910F910F900FBE5F
S11311700F901F9018951F920F920FB60F92112483
S11311800F931F932F933F934F935F936F937F938B
S11311908F939F93AF93BF93EF93FF9380910C0131
S11311A090910D01AC01092E000C660B770B9A018E
S11311B011270027409184005091850060E070E081
S11311C0402B512B622B732B40930E0150930F0134
S11311D06093100170931101B09B1AC00196092EFF
S11311E0000CAA0BBB0BBC0155274427809184003B
S11311F090918500A0E0B0E0842B952BA62BB72B13
S113120080930E0190930F01A0931001B0931101EC
S1131210E091C601F091C701309739F06CE070E0BD
S113122080912E0190912F0109950E945303FF9103
S1131230EF91BF91AF919F918F917F916F915F914A
S11312404F913F912F911F910F910F900FBE0F90CF
S11312501F9018951F920F920FB60F9211240F939F
S11312601F932F933F934F935F936F937F938F932A
S11312709F93AF93BF93EF93FF9380910C01909151
S11312800D01AC01092E000C660B770B9A01112796
S11312900027409184005091850060E070E0402B6D
S11312A0512B622B732B40930E0150930F016093CB
S11312B0100170931101B09B1AC00196092E000C05
S11312C0AA0BBB0BBC015527442780918400909145
S11312D08500A0E0B0E0842B952BA62BB72B809340
S11312E00E0190930F01A0931001B0931101E091AE
S11312F0C801F091C901309739F06DE070E0809138
S113130030019091310109950E945303FF91EF91AF
S1131310BF91AF919F918F917F916F915F914F9109
S11313203F912F911F910F910F900FBE0F901F901F
S113133018951F920F920FB60F9211240F931F93BB
S11313402F933F934F935F936F937F938F939F93C9
S1131350AF93BF93EF93FF9380910C0190910D0194
S1131360AC01092E000C660B770B9A01112700279C
S1131370409184005091850060E070E0402B512B37
S1131380622B732B40930E0150930F016093100155
S113139070931101B09B1AC00196092E000CAA0B80
S11313A0BB0BBC0155274427809184009091850094
S11313B0A0E0B0E0842B952BA62BB72B80930E01D5
S11313C090930F01A0931001B0931101E091CA0111
S11313D0F091CB01309739F06EE070E080913201EA
S11313E09091330109950E945303FF91EF91BF91AE
S11313F0AF919F918F917F916F915F914F913F91A9
S11314002F911F910F910F900FBE0F901F90189561
S11314101F920F920FB60F9211240F931F932F93C5
S11314203F934F935F936F937F938F939F93AF9368
S1131430BF93EF93FF9380910C0190910D01AC0148
S1131440092E000C660B770B9A0111270027409197
S113145084005091850060E070E0402B512B622B9A
S1131460732B40930E0150930F01609310017093FE
S11314701101B09B1AC00196092E000CAA0BBB0BDC
S1131480BC01552744278091840090918500A0E0F9
S1131490B0E0842B952BA62BB72B80930E01909351
S11314A00F01A0931001B0931101E091CC01F091D0
S11314B0CD01309739F06FE070E080913401909164
S11314C0350109950E945303FF91EF91BF91AF91AC
S11314D09F918F917F916F915F914F913F912F9148
S11314E01F910F910F900FBE0F901F9018951F9290
S11314F00F920FB60F9211240F931F932F933F93C4
S11315004F935F936F937F938F939F93AF93BF9307
S1131510EF93FF9380910C0190910D01AC01092E82
S1131520000C660B770B9A01112700274091840069
S11315305091850060E070E0402B512B622B732B9F
S113154040930E0150930F016093100170931101A9
S1131550B09B1AC00196092E000CAA0BBB0BBC0150
S1131560552744278091840090918500A0E0B0E045
S1131570842B952BA62BB72B80930E0190930F01F0
S1131580A0931001B0931101E091CE01F091CF012D
S1131590309739F060E170E0809136019091370125
S11315A009950E945303FF91EF91BF91AF919F91D1
S11315B08F917F916F915F914F913F912F911F91E7
S11315C00F910F900FBE0F901F9018951F920F92BE
S11315D00FB60F9211240F931F932F933F934F93A2
S11315E05F936F937F938F939F93AF93BF93EF9387
S11315F0FF9380910C0190910D01AC01092E000C18
S1131600660B770B9A0111270027409184005091B3
S1131610850060E070E0402B512B622B732B4093CC
S11316200E0150930F016093100170931101B09B50
S11316301AC00196092E000CAA0BBB0BBC0155273E
S113164044278091840090918500A0E0B0E0842B31
S1131650952BA62BB72B80930E0190930F01A0938B
S11316601001B0931101E091D001F091D1013097B4
S113167039F061E170E08091380190913901099568
S11316800E945303FF91EF91BF91AF919F918F916E
S11316907F916F915F914F913F912F911F910F9186
S11316A00F900FBE0F901F9018950E9453037894CB
S11316B081E083BF8895FCCF1F920F920FB60F92E3
S11316C011242F933F934F935F936F937F938F9343
S11316D09F93EF93FF9380910C0190910D010196DC
S11316E090930D0180930C01E0911201F09113018C
S11316F0309701F142815381648175818617970780
S1131700C9F4CA012091840030918500421B530B17
S11317104130510529F4809184009091850001960F
S11317209093890080938800EFE6F0E080818260E6
S1131730808305C0EFE6F0E080818D7F8083FF9198
S1131740EF919F918F917F916F915F914F913F9115
S11317502F910F900FBE0F901F9018951F920F920C
S11317600FB60F921124CF92DF92EF92FF922F9334
S11317703F934F935F936F937F938F939F93AF9315
S1131780BF93EF93FF9380910C0190910D016C0135
S1131790092E000CEE08FF087601DD24CC244091CC
S11317A084005091850060E070E0C42AD52AE62ABE
S11317B0F72AB09B1EC06C012FEFC21AD20A0D2C5F
S11317C0000CEE08FF08D60199278827C0908400F2
S11317D0D0908500E12CF12CC82AD92AEA2AFB2AC8
S11317E008C082E191E00E941E0364E171E00E945E
S11317F0BC02E0911201F0911301309769F08281EB
S11318009381A481B5818C199D09AE09BF0918166D
S113181019061A061B062CF7309721F18281938151
S1131820A481B58120910C0130910D012A173B0749
S1131830C9F49C014091840050918500841B950B50
S1131840019731F420918400309185002F5F3F4F40
S11318503093890020938800EFE6F0E08081826075
S1131860808305C0EFE6F0E080818D7F80830E9455
S11318705303FF91EF91BF91AF919F918F917F910E
S11318806F915F914F913F912F91FF90EF90DF9077
S1131890CF900F900FBE0F901F9018953F924F92CC
S11318A05F926F927F928F929F92AF92BF92CF92EC
S11318B0DF92EF92FF920F931F93CF93DF932B014D
S11318C03C0149015A018FB78078382EF89486E09C
S11318D091E00E941E03EC011B870A87FD86EC86BB
S11318E0DF86CE86332061F0E0910001F0910101A2
S11318F00280F381E02D82819381A481B58108C0A7
S113190080910E0190910F01A0911001B0911101ED
S1131910480E591E6A1E7B1E4A825B826C827D823F
S1131920181419041A041B0444F00F2E88248A94F2
S1131930982CA82CFFE7BF2EF02D840C951CA61C18
S1131940B71C8E829F82A886B98620910C013091A3
S11319500D01C901032E000CAA0BBB0BDC01992756
S11319608827409184005091850060E070E0842BCA
S1131970952BA62BB72BB09B13C0C9010196092E3A
S1131980000CAA0BBB0BDC0199278827409184002B
S11319905091850060E070E0842B952BA62BB72B2B
S11319A0481A590A6A0A7B0A1414150416041704FF
S11319B0ACF562E171E0CE010E94ED02E09112010A
S11319C0F0911301309721F182819381A481B58133
S11319D020910C0130910D012A173B07C9F49C0199
S11319E04091840050918500841B950B019731F43C
S11319F020918400309185002F5F3F4F3093890000
S1131A0020938800EFE6F0E080818260808339C013
S1131A10EFE6F0E080818D7F808333C064E171E084
S1131A20CE010E94BC02332061F1809104019091A7
S1131A300501892B31F1E0911401F09115018681A2
S1131A409781A085B185E0910201F09103010280A4
S1131A50F381E02D4681578160857185841B950B48
S1131A60A60BB70B72F484E091E00E94490362E094
S1131A7071E00E943F0380910201909103010E9452
S1131A809C02332009F07894CE01DF91CF911F910D
S1131A900F91FF90EF90DF90CF90BF90AF909F9009
S1131AA08F907F906F905F904F903F900895CF926A
S1131AB0DF92EF92FF920F931F93CF93DF93EC018A
S1131AC07B016A011FB71078F894A881B981109737
S1131AD019F435C0A081B1811496ED91FC9115974C
S1131AE03097C1F72091000130910101A217B3078B
S1131AF011F0111107C0112309F44AC078948FEF33
S1131B009FEF4EC08A819B81009719F0FC011582DA
S1131B1014823B832A83F901D583C483CD010E94B7
S1131B209C02E0910001F091010182819381892B53
S1131B3031F4112381F1789480E090E031C08091F8
S1131B4000019091010199838883112329F08A81EE
S1131B509B81019709F07894B601CE01F7010995AC
S1131B60F82E092F8FB7F894198218828A819B81E5
S1131B708230910538F01B821A82FC01158214828E
S1131B800E949C02112351F078948F2D902F08C04D
S1131B908FEF9FEF05C080E090E002C08F2D902F63
S1131BA0DF91CF911F910F91FF90EF90DF90CF9035
S1131BB00895009100011091010184E191E00E94D7
S1131BC01E03EC01F8019383828378946C857D85F0
S1131BD04E855F858A859B850E94570D8FB7F89443
S1131BE066E071E0CE010E943503E0910201F091BC
S1131BF003010190F081E02DC281D381E0911401B1
S1131C00F09115013097A1F0209799F28681978180
S1131C10A085B1854E815F8168857985841B950B8C
S1131C20A60BB70B181619061A061B060CF0C1CF23
S1131C3082E091E00E94490364E071E00E943F0366
S1131C40A0910201B091030102C0A081B181149658
S1131C50ED91FC9115973097C1F7CD010E949C023C
S1131C60A8CFFC014231B8F49FB79078F89450E0C3
S1131C70440F551FDA01AA5EBE4FED93FC93DA01BF
S1131C80A255BE4F6D937C9321E030E033832283D1
S1131C90992309F0789408958C017B016A018FB728
S1131CA0F8940E94FD017894E114F10441F020E0DD
S1131CB030E0A90160E070E0CB010E944E0C8FB7C8
S1131CC0F8940E94550B5058BB27AA270E947B0EFC
S1131CD00C948F0F0E94810F38F00E94880F20F01F
S1131CE039F49F3F19F426F40C947E0F0EF4E0951A
S1131CF0E7FB0C94780FE92F0E94A00F58F3BA1752
S1131D00620773078407950720F079F4A6F50C940D
S1131D10C20F0EF4E0950B2EBA2FA02D0B01B901C2
S1131D2090010C01CA01A0011124FF27591B99F04D
S1131D30593F50F4503E68F11A16F040A22F232F59
S1131D40342F4427585FF3CF469537952795A795A9
S1131D50F0405395C9F77EF41F16BA0B620B730B50
S1131D60840BBAF09150A1F0FF0FBB1F661F771FC1
S1131D70881FC2F70EC0BA0F621F731F841F48F476
S1131D80879577956795B795F7959E3F08F0B0CFFF
S1131D909395880F08F09927EE0F979587950895E6
S1131DA00E94E40E0C948F0F0E94880F58F00E943A
S1131DB0810F40F029F45F3F29F00C94780F511102
S1131DC00C94C30F0C947E0F0E94A00F68F3992308
S1131DD0B1F3552391F3951B550BBB27AA27621723
S1131DE07307840738F09F5F5F4F220F331F441F30
S1131DF0AA1FA9F335D00E2E3AF0E0E832D0915064
S1131E005040E695001CCAF72BD0FE2F29D0660F50
S1131E10771F881FBB1F261737074807AB07B0E893
S1131E2009F0BB0B802DBF01FF2793585F4F3AF099
S1131E309E3F510578F00C94780F0C94C30F5F3FCC
S1131E40E4F3983ED4F3869577956795B795F7951F
S1131E509F5FC9F7880F911D9695879597F9089507
S1131E60E1E0660F771F881FBB1F621773078407A3
S1131E70BA0720F0621B730B840BBA0BEE1F88F7B2
S1131E80E09508950E94490F6894B1110C94C30F12
S1131E9008950E94A80F88F09F5798F0B92F9927AA
S1131EA0B751B0F0E1F0660F771F881F991F1AF041
S1131EB0BA95C9F714C0B13091F00E94C20FB1E0D5
S1131EC008950C94C20F672F782F8827B85F39F0D4
S1131ED0B93FCCF3869577956795B395D9F73EF4DA
S1131EE090958095709561957F4F8F4F9F4F089582
S1131EF097F99F6780E870E060E008959FEF80ECB9
S1131F00089500240A94161617061806090608955B
S1131F1000240A9412161306140605060895092EC1
S1131F200394000C11F4882352F0BB0F40F4BF2B30
S1131F3011F460FF04C06F5F7F4F8F4F9F4F089570
S1131F4057FD9058440F551F59F05F3F71F0479566
S1131F50880F97FB991F61F09F3F79F0879508954B
S1131F60121613061406551FF2CF4695F1DF08C06A
S1131F70161617061806991FF1CF86957105610587
S1131F8008940895E894BB2766277727CB0197F92F
S1131F9008950E943B1008F48FEF08950E94E10F0A
S1131FA00C948F0F0E94810F38F00E94880F20F04C
S1131FB0952311F00C94780F0C947E0F11240C943B
S1131FC0C30F0E94A00F70F3959FC1F3950F50E0CB
S1131FD0551F629FF001729FBB27F00DB11D639FD7
S1131FE0AA27F00DB11DAA1F649F6627B00DA11D7D
S1131FF0661F829F2227B00DA11D621F739FB00D23
S1132000A11D621F839FA00D611D221F749F332792
S1132010A00D611D231F849F600D211D822F762F2B
S11320206A2F11249F5750409AF0F1F088234AF008
S1132030EE0FFF1FBB1F661F771F881F9150504074
S1132040A9F79E3F510580F00C94780F0C94C30FB0
S11320505F3FE4F3983ED4F3869577956795B795FB
S1132060F795E7959F5FC1F7FE2B880F911D969515
S1132070879597F90895990F0008550FAA0BE0E882
S1132080FEEF16161706E807F907C0F01216130636
S1132090E407F50798F0621B730B840B950B39F476
S11320A00A2661F0232B242B252B21F408950A26DC
S11320B009F4A140A6958FEF811D811D0895DC01CF
S11320C02D923D924D925D926D927D928D929D9254
S11320D0AD92BD92CD92DD92ED92FD920D931D9342
S11320E0CD93DD93FF91EF918DB78D938EB78D9343
S11320F08FB78D93ED93FD93882799270994DC017D
S1132100CB0181309105811D2D903D904D905D90C6
S11321106D907D908D909D90AD90BD90CD90DD9013
S1132120ED90FD900D911D91CD91DD91ED91FD917D
S11321300D90F894FEBF0FBEEDBFED91FD91099493
S1072140F894FFCF3D
S10B2144D201D2013A01EF01BE
S9030136C5
