:100000000C942E000C9439060C94A8060C94170737
:100010000C9486070C94F5070C944B000C94600E1E
:100020000C944B000C940E0E0C9464080C94D308A2
:100030000C9442090C94B1090C94200A0C948F0A78
:100040000C94FE0A0C946D0B0C94DC0B0C944B0C72
:100050000C94BA0C0C94290D0C94980D11241FBE0D
:10006000CFEFD4E0DEBFCDBF11E0A0E0B1E0E4E42B
:10007000F6E202C005900D92A837B107D9F724E047
:10008000A8E7B1E001C01D92AB3CB207E1F70E94C6
:1000900054030C9420130C940000CF92DF92EF9243
:1000A000FF920F931F93CF93DF93EC011E994FC0E4
:1000B0000A851B85C12CD12C0F2EFEE4EF2EF4E017
:1000C000FF2EF02D20E030E0A90160E070E0CB01D0
:1000D0000E94000FE885F985AA85BB8516968D914B
:1000E0009C911797092E000CAA0BBB0B8483958358
:1000F000A683B783088519850F2EF1EFEF2EF2E066
:10010000FF2EF02D20E030E0A90160E070E0CB018F
:100110000E94000FEA85FB8584859585019709F487
:1001200093C081E090E0958784870A851B850F2E18
:10013000F4E6EF2EF4E0FF2EF02D20E030E0A901F0
:1001400063E77BEC80E090E00E94000F7DC01F9988
:100150004FC00A851B85C12CD12C0F2EF9E5EF2E3F
:10016000F4E0FF2EF02D20E030E0A90160E070E027
:10017000CB010E94000FE885F985AA85BB851696FC
:100180008D919C911797092E000CAA0BBB0B8483B1
:100190009583A683B783088519850F2EF1EFEF2E7F
:1001A000F2E0FF2EF02D20E030E0A90160E070E0E9
:1001B000CB010E94000FEA85FB8584859585019718
:1001C00009F442C081E090E0958784870A851B8509
:1001D0000F2EF4E6EF2EF4E0FF2EF02D20E030E0BD
:1001E000A90163E77BEC80E090E00E94000F2CC047
:1001F0001C992AC00A851B85F80186819781009782
:1002000089F0C12CD12C0F2EF1EAEF2EF4E0FF2E55
:10021000F02D20E030E0A90160E070E0CB010E9409
:10022000000F12C0892B81F4C12CD12C0F2EF9EABA
:10023000EF2EF4E0FF2EF02D20E030E0A90160E089
:1002400070E0CB010E94000F08851985C12CD12CCC
:100250000F2EF1EFEF2EF2E0FF2EF02D20E030E038
:10026000A90160E070E0CB010E94000FDF91CF9107
:100270001F910F91FF90EF90DF90CF900895CF9254
:10028000DF92EF92FF920F931F93CF93DF93FC01C6
:10029000629932C08481958193878287A085B185D8
:1002A00019961C921E921897C085D185A285B38598
:1002B00016968D919C911797092E000CAA0BBB0BDB
:1002C0008C839D83AE83BF831092F90081E080937D
:1002D000FE0000851185C12CD12C0F2EF1EFEF2EE1
:1002E000F2E0FF2EF02D20E030E0A90160E070E0A8
:1002F000CB010E94000F35C0639933C0868197817E
:1003000093878287A085B18584E090E019969C93BD
:100310008E931897C085D185A285B38516968D9149
:100320009C911797092E000CAA0BBB0B8C839D8305
:10033000AE83BF8381E08093F9001092FE000085B8
:100340001185C12CD12C0F2EF1EFEF2EF2E0FF2EF4
:10035000F02D20E030E0A90160E070E0CB010E94C8
:10036000000FDF91CF911F910F91FF90EF90DF90E1
:10037000CF900895E1E6F0E080E88083108287EB7B
:100380008093E50087E08093E6008FE08093E700AC
:1003900080EC8093E4000895CF92DF92EF92FF9279
:1003A0001F93CF93DF9310ED180F6630710508F09F
:1003B000B1C01A3008F0AEC09B012E5F3F4FC9019B
:1003C00099230CF401966B01BC0175956795072E76
:1003D000000C880B990B0E94BA110E94F51120E0C5
:1003E00030E040E85FE30E9415110E948211FB019A
:1003F000EE0FFF1FE05BFE4FA081B181ED90FC90FE
:100400001197E12FF0E09F01220F331F220F331FBE
:10041000220F331F20503F4FE90148815981960137
:1004200021703078332334F4215031092E6F3F6F1F
:100430002F5F3F4F220F331F220F331F022E02C0A8
:10044000440F551F0A94E2F74E0D5F1D4D935C93C8
:100450006B017C01D4E0CD0ED11CE11CF11CA60186
:10046000440F551FDA01A05BBE4F0D90BC91A02D2B
:10047000CD91DC911197EE0FFF1FEE0FFF1FEE0FD6
:10048000FF1FE050FF4F42815381022E02C0440FF4
:10049000551F0A94E2F74C0F5D1F4D935C936B015F
:1004A0007C0148E0C40ED11CE11CF11CA601440FE4
:1004B000551FDA01A05BBE4F0D90BC91A02DCD91D0
:1004C000DC91119744815581022E02C0440F551FC3
:1004D0000A94E2F74C0F5D1F4D935C93DC01CB0156
:1004E0000C96A11DB11DBC01660F771FDB01A05B3F
:1004F000BE4F0D90BC91A02D4D915C9111978681BE
:10050000978102C0880F991F2A95E2F7840F951FE3
:100510008D939C93DF91CF911F91FF90EF90DF908F
:10052000CF9008958230910548F41092EC0010921B
:10053000F1001092F6001092FB00089503970297C5
:1005400080F41092ED001092EE001092F2001092E2
:10055000F3001092F7001092F8001092FC00109235
:10056000FD0008958F929F92AF92BF92CF92DF923B
:10057000EF92FF92CF93DF934B015C01EA01CA0136
:100580000E949202C501B40124E630E040E050E050
:100590000E949E120F2EFAE0CF2ED12CE12CF12CCE
:1005A000F02DA70196010E949E12BE0180E3820FEA
:1005B0000E94CC012196C501B401A70196010E94B9
:1005C0009E12862FBE01805D0E94CC01DF91CF91EB
:1005D000FF90EF90DF90CF90BF90AF909F908F9063
:1005E0000895CF93DF93EC018C819D81AE81BF8113
:1005F000BB2324F41C821D821E821F828C819D815C
:10060000AE81BF8184369105A105B10544F083E632
:1006100090E0A0E0B0E08C839D83AE83BF838885AB
:1006200099850E949202488559856C817D818E81D1
:100630009F810E94B202DF91CF910895CF92DF9205
:10064000EF92FF920F931F93CF93DF93EC014885B6
:1006500059856C817D818E819F810E94B2020E85B9
:100660001F85C12CD12C0F2EFDE0EF2EF4E0FF2EC4
:10067000F02D20E030E0A90160E070E0CB010E94A5
:10068000000F0889198920E030E0A90160E070E0DE
:10069000CB010E94000FDF91CF911F910F91FF902E
:1006A000EF90DF90CF900895EF92FF920F931F93FA
:1006B000CF93DF93CDB7DEB7CA54D1090FB6F89404
:1006C000DEBF0FBECDBF80ED85B98CE08EB98FEF58
:1006D00080936C0080936B008DB3806C8DBB8EB16A
:1006E0008EB98DB180658DB91A8219821C821B82E8
:1006F0001E821D82FE01379682E1DF011D928A95DE
:10070000E9F7CE010196988F8F8B1A8E198E1C8E69
:100710001B8E21E030E03E8F2D8F24E030E038A3A7
:100720002F8F1AA219A21CA21BA21EA21DA218A6DC
:100730001FA29AA789A71CA61BA61EA61DA681E01C
:1007400090E0A0E0B0E08FA798ABA9ABBAAB1CAA31
:100750001BAA1EAA1DAA18AE1FAAFAAFE9AFCE01A6
:1007600049969CAF8BAF8E01035C1F4F2EE0D801E2
:100770001D922A95E9F72396FFAFEEAF23972596B2
:100780009FAF8EAF25977E01BBE2EB0EF11C279643
:10079000FFAEEEAE27972996FFAFEEAF29970E94E6
:1007A000BA0141E06FE371E0C8010E94E31042E04A
:1007B0006DE470E0C8010E94E31040E050E06EE19B
:1007C00073E0C7010E94FE10C65BDF4F0FB6F894BE
:1007D000DEBF0FBECDBFDF91CF911F910F91FF9074
:1007E000EF9008956115710521F49EB180E189278C
:1007F0008EB96130710521F49EB180E489278EB9EC
:1008000008956115710519F48EB18EB9089561309E
:10081000710511F48EB18EB90895CF92DF92EF92E7
:10082000FF920F931F93CF93DF93EC018E819F81F3
:10083000009739F06C817D81888999890E94F20343
:1008400008C0892B31F46C817D81888999890E9447
:1008500001042E813F81032E000C440B550B69E0EF
:100860007DE380E090E00E949E12CA01B901C12C94
:10087000D12C0F2EFDE0EF2EF4E0FF2EF02D8E0197
:1008800020E030E0A9010E94000FDF91CF911F917D
:100890000F91FF90EF90DF90CF900895FC0126819B
:1008A00037812336310524F42F5F3F4F378326836A
:1008B0000895FC01268137811216130624F4215075
:1008C0003109378326830895CF92DF92EF92FF920A
:1008D0000F931F938C011E9914C00E944E04C12CCB
:1008E000D12C0F2EF4E6EF2EF4E0FF2EF02D20E0B9
:1008F00030E0A90169E07DE380E090E00E94000F14
:1009000019C01F9914C00E945904C12CD12C0F2E5C
:10091000F4E6EF2EF4E0FF2EF02D20E030E0A90108
:1009200069E07DE380E090E00E94000F03C0FC01DD
:10093000158614861F910F91FF90EF90DF90CF9056
:100940000895FC018681978191878087178216829E
:100950000895FC0120853185378326830895CF9340
:10096000DF9300D000D0CDB7DEB780E090E018C0B4
:10097000AC014F5F5F4F9A0122953295307F32274D
:10098000207F3227255A3D4F82959295907F982758
:10099000807F9827FC01E55AFD4F31832083CA01EF
:1009A0008E3091052CF310923C0310923B0380E0B3
:1009B00090E015C0AC014F5F5F4F6DE1649F900107
:1009C000659F300D11242A553E4F689FF001699FA5
:1009D000F00D1124EA55FE4F31832083CA01833084
:1009E000910544F31092FE011092FD011A821982C2
:1009F00032C02DE149815A81249FC001259F900D6D
:100A00001124FC01E455FE4FFC83EB83CF010E94CF
:100A1000DF1220E649815A81249FC001259F900D55
:100A2000112489559C4FEB81FC81918B808B938B9A
:100A3000828B8BE890E1968B858B8DE1849FF00112
:100A4000859FF00D1124EA55FE4F158214824F5FE9
:100A50005F4F5A83498329813A81243031054CF212
:100A6000EEE3F2E011821082158214821382128268
:100A7000E1E6F0E080E88083108210928500109219
:100A8000840084E08093810081E080936F000F9068
:100A90000F900F900F90DF91CF910895CF93DF9338
:100AA00000D0CDB7DEB79A83898380917001909191
:100AB000710106960E94DF12892B59F489819A816F
:100AC000909371018093700161E070E006960E943E
:100AD000FF120F900F90DF91CF9108950F931F9306
:100AE000CF93DF93DC01CB01EB01E881F981C0E01A
:100AF000D0E004C0EF010190F081E02D309779F053
:100B0000068117812085318516964D915D916D91F5
:100B10007C91199740175107620773075CF711968C
:100B2000FC93EE93209721F4FC01B183A08302C0D3
:100B3000B983A883DF91CF911F910F9108950F93EF
:100B40001F93CF93DF93DC01CB01EB01E881F981A7
:100B5000C0E0D0E004C0EF010190F081E02D3097BB
:100B600079F0028113812481358112964D915D9136
:100B70006D917C91159740175107620773075CF7D9
:100B80001196FC93EE93209721F4FC01B183A0838E
:100B900002C0B983A883DF91CF911F910F9108956F
:100BA000DC01ED91FC911197309759F48FEF809310
:100BB000EC008093ED008093EE0081E083BF889588
:100BC000FCCF208131812D933C93CF010895FB010F
:100BD00020813181FC0131832083FB01918380835B
:100BE0000895FB0120813181FC0131832083FB01C9
:100BF000918380830895DC01ED91FC911197208110
:100C000031812D933C93CF010895CF93DF93E091F1
:100C10007201F0917301C281D381E0918001F09162
:100C20008101309719F18091740190917501892BA0
:100C3000E9F0209769F086819781A085B1854E8182
:100C40005F8168857985841B950BA60BB70B72F4C1
:100C500084E791E00E94FB0562E771E00E94F105E4
:100C600080917201909173010E944E05DF91CF91A6
:100C700008951F920F920FB60F9211240F931F9396
:100C80002F933F934F935F936F937F938F939F9394
:100C9000AF93BF93EF93FF93809178019091790187
:100CA000AC01092E000C660B770B9A011127002767
:100CB000409184005091850060E070E0402B512B02
:100CC000622B732B40937A0150937B0160937C01DC
:100CD00070937D01B09B1AC00196092E000CAA0BDF
:100CE000BB0BBC015527442780918400909185005F
:100CF000A0E0B0E0842B952BA62BB72B80937A0134
:100D000090937B01A0937C01B0937D01E0911A0246
:100D1000F0911B02309739F060E070E08091820121
:100D20009091830109950E940506FF91EF91BF9173
:100D3000AF919F918F917F916F915F914F913F9173
:100D40002F911F910F910F900FBE0F901F9018952C
:100D50001F920F920FB60F9211240F931F932F9390
:100D60003F934F935F936F937F938F939F93AF9333
:100D7000BF93EF93FF938091780190917901AC013B
:100D8000092E000C660B770B9A0111270027409162
:100D900084005091850060E070E0402B512B622B65
:100DA000732B40937A0150937B0160937C01709385
:100DB0007D01B09B1AC00196092E000CAA0BBB0B3B
:100DC000BC01552744278091840090918500A0E0C4
:100DD000B0E0842B952BA62BB72B80937A019093B0
:100DE0007B01A0937C01B0937D01E0911C02F09106
:100DF0001D02309739F061E070E08091840190919C
:100E0000850109950E940506FF91EF91BF91AF9171
:100E10009F918F917F916F915F914F913F912F9112
:100E20001F910F910F900FBE0F901F9018951F925A
:100E30000F920FB60F9211240F931F932F933F938E
:100E40004F935F936F937F938F939F93AF93BF93D2
:100E5000EF93FF938091780190917901AC01092E75
:100E6000000C660B770B9A01112700274091840034
:100E70005091850060E070E0402B512B622B732B6A
:100E800040937A0150937B0160937C0170937D01C4
:100E9000B09B1AC00196092E000CAA0BBB0BBC011B
:100EA000552744278091840090918500A0E0B0E010
:100EB000842B952BA62BB72B80937A0190937B01E3
:100EC000A0937C01B0937D01E0911E02F0911F027E
:100ED000309739F062E070E080918601909187014F
:100EE00009950E940506FF91EF91BF91AF919F91E7
:100EF0008F917F916F915F914F913F912F911F91B2
:100F00000F910F900FBE0F901F9018951F920F9288
:100F10000FB60F9211240F931F932F933F934F936C
:100F20005F936F937F938F939F93AF93BF93EF9351
:100F3000FF938091780190917901AC01092E000C0A
:100F4000660B770B9A01112700274091840050917E
:100F5000850060E070E0402B512B622B732B409397
:100F60007A0150937B0160937C0170937D01B09B6B
:100F70001AC00196092E000CAA0BBB0BBC01552709
:100F800044278091840090918500A0E0B0E0842BFC
:100F9000952BA62BB72B80937A0190937B01A0937E
:100FA0007C01B0937D01E0912002F0912102309705
:100FB00039F063E070E08091880190918901099592
:100FC0000E940506FF91EF91BF91AF919F918F9184
:100FD0007F916F915F914F913F912F911F910F9151
:100FE0000F900FBE0F901F9018951F920F920FB683
:100FF0000F9211240F931F932F933F934F935F935F
:101000006F937F938F939F93AF93BF93EF93FF93D0
:101010008091780190917901AC01092E000C660B4A
:10102000770B9A0111270027409184005091850089
:1010300060E070E0402B512B622B732B40937A01C0
:1010400050937B0160937C0170937D01B09B1AC02B
:101050000196092E000CAA0BBB0BBC015527442797
:101060008091840090918500A0E0B0E0842B952BC6
:10107000A62BB72B80937A0190937B01A0937C01E0
:10108000B0937D01E0912202F0912302309739F074
:1010900064E070E080918A0190918B0109950E9433
:1010A0000506FF91EF91BF91AF919F918F917F9135
:1010B0006F915F914F913F912F911F910F910F90E1
:1010C0000FBE0F901F9018951F920F920FB60F92A0
:1010D00011240F931F932F933F934F935F936F931D
:1010E0007F938F939F93AF93BF93EF93FF938091E1
:1010F000780190917901AC01092E000C660B770BF9
:101100009A0111270027409184005091850060E0EA
:1011100070E0402B512B622B732B40937A0150933C
:101120007B0160937C0170937D01B09B1AC0019696
:10113000092E000CAA0BBB0BBC015527442780913C
:10114000840090918500A0E0B0E0842B952BA62B25
:10115000B72B80937A0190937B01A0937C01B0938D
:101160007D01E0912402F0912502309739F065E08D
:1011700070E080918C0190918D0109950E94050687
:10118000FF91EF91BF91AF919F918F917F916F915F
:101190005F914F913F912F911F910F910F900FBE33
:1011A0000F901F9018951F920F920FB60F92112457
:1011B0000F931F932F933F934F935F936F937F935F
:1011C0008F939F93AF93BF93EF93FF938091780199
:1011D00090917901AC01092E000C660B770B9A01F6
:1011E00011270027409184005091850060E070E055
:1011F000402B512B622B732B40937A0150937B0130
:1012000060937C0170937D01B09B1AC00196092EFA
:10121000000CAA0BBB0BBC0155274427809184000E
:1012200090918500A0E0B0E0842B952BA62BB72BE6
:1012300080937A0190937B01A0937C01B0937D0110
:10124000E0912602F0912702309739F066E070E0D5
:1012500080918E0190918F0109950E940506FF9162
:10126000EF91BF91AF919F918F917F916F915F911E
:101270004F913F912F911F910F910F900FBE0F90A3
:101280001F9018951F920F920FB60F9211240F9373
:101290001F932F933F934F935F936F937F938F93FE
:1012A0009F93AF93BF93EF93FF93809178019091B9
:1012B0007901AC01092E000C660B770B9A011127FE
:1012C0000027409184005091850060E070E0402B41
:1012D000512B622B732B40937A0150937B016093C7
:1012E0007C0170937D01B09B1AC00196092E000C01
:1012F000AA0BBB0BBC015527442780918400909119
:101300008500A0E0B0E0842B952BA62BB72B809313
:101310007A0190937B01A0937C01B0937D01E091D1
:101320002802F0912902309739F067E070E080914F
:1013300090019091910109950E940506FF91EF910E
:10134000BF91AF919F918F917F916F915F914F91DD
:101350003F912F911F910F910F900FBE0F901F90F3
:1013600018951F920F920FB60F9211240F931F938F
:101370002F933F934F935F936F937F938F939F939D
:10138000AF93BF93EF93FF93809178019091790190
:10139000AC01092E000C660B770B9A011127002770
:1013A000409184005091850060E070E0402B512B0B
:1013B000622B732B40937A0150937B0160937C01E5
:1013C00070937D01B09B1AC00196092E000CAA0BE8
:1013D000BB0BBC0155274427809184009091850068
:1013E000A0E0B0E0842B952BA62BB72B80937A013D
:1013F00090937B01A0937C01B0937D01E0912A0240
:10140000F0912B02309739F068E070E08091920102
:101410009091930109950E940506FF91EF91BF916C
:10142000AF919F918F917F916F915F914F913F917C
:101430002F911F910F910F900FBE0F901F90189535
:101440001F920F920FB60F9211240F931F932F9399
:101450003F934F935F936F937F938F939F93AF933C
:10146000BF93EF93FF938091780190917901AC0144
:10147000092E000C660B770B9A011127002740916B
:1014800084005091850060E070E0402B512B622B6E
:10149000732B40937A0150937B0160937C0170938E
:1014A0007D01B09B1AC00196092E000CAA0BBB0B44
:1014B000BC01552744278091840090918500A0E0CD
:1014C000B0E0842B952BA62BB72B80937A019093B9
:1014D0007B01A0937C01B0937D01E0912C02F091FF
:1014E0002D02309739F069E070E08091940190917D
:1014F000950109950E940506FF91EF91BF91AF916B
:101500009F918F917F916F915F914F913F912F911B
:101510001F910F910F900FBE0F901F9018951F9263
:101520000F920FB60F9211240F931F932F933F9397
:101530004F935F936F937F938F939F93AF93BF93DB
:10154000EF93FF938091780190917901AC01092E7E
:10155000000C660B770B9A0111270027409184003D
:101560005091850060E070E0402B512B622B732B73
:1015700040937A0150937B0160937C0170937D01CD
:10158000B09B1AC00196092E000CAA0BBB0BBC0124
:10159000552744278091840090918500A0E0B0E019
:1015A000842B952BA62BB72B80937A0190937B01EC
:1015B000A0937C01B0937D01E0912E02F0912F0267
:1015C000309739F06AE070E0809196019091970130
:1015D00009950E940506FF91EF91BF91AF919F91F0
:1015E0008F917F916F915F914F913F912F911F91BB
:1015F0000F910F900FBE0F901F9018951F920F9292
:101600000FB60F9211240F931F932F933F934F9375
:101610005F936F937F938F939F93AF93BF93EF935A
:10162000FF938091780190917901AC01092E000C13
:10163000660B770B9A011127002740918400509187
:10164000850060E070E0402B512B622B732B4093A0
:101650007A0150937B0160937C0170937D01B09B74
:101660001AC00196092E000CAA0BBB0BBC01552712
:1016700044278091840090918500A0E0B0E0842B05
:10168000952BA62BB72B80937A0190937B01A09387
:101690007C01B0937D01E0913002F09131023097EE
:1016A00039F06BE070E08091980190919901099573
:1016B0000E940506FF91EF91BF91AF919F918F918D
:1016C0007F916F915F914F913F912F911F910F915A
:1016D0000F900FBE0F901F9018951F920F920FB68C
:1016E0000F9211240F931F932F933F934F935F9368
:1016F0006F937F938F939F93AF93BF93EF93FF93DA
:101700008091780190917901AC01092E000C660B53
:10171000770B9A0111270027409184005091850092
:1017200060E070E0402B512B622B732B40937A01C9
:1017300050937B0160937C0170937D01B09B1AC034
:101740000196092E000CAA0BBB0BBC0155274427A0
:101750008091840090918500A0E0B0E0842B952BCF
:10176000A62BB72B80937A0190937B01A0937C01E9
:10177000B0937D01E0913202F0913302309739F05D
:101780006CE070E080919A0190919B0109950E9414
:101790000506FF91EF91BF91AF919F918F917F913E
:1017A0006F915F914F913F912F911F910F910F90EA
:1017B0000FBE0F901F9018951F920F920FB60F92A9
:1017C00011240F931F932F933F934F935F936F9326
:1017D0007F938F939F93AF93BF93EF93FF938091EA
:1017E000780190917901AC01092E000C660B770B02
:1017F0009A0111270027409184005091850060E0F4
:1018000070E0402B512B622B732B40937A01509345
:101810007B0160937C0170937D01B09B1AC001969F
:10182000092E000CAA0BBB0BBC0155274427809145
:10183000840090918500A0E0B0E0842B952BA62B2E
:10184000B72B80937A0190937B01A0937C01B09396
:101850007D01E0913402F0913502309739F06DE06E
:1018600070E080919C0190919D0109950E94050670
:10187000FF91EF91BF91AF919F918F917F916F9168
:101880005F914F913F912F911F910F910F900FBE3C
:101890000F901F9018951F920F920FB60F92112460
:1018A0000F931F932F933F934F935F936F937F9368
:1018B0008F939F93AF93BF93EF93FF9380917801A2
:1018C00090917901AC01092E000C660B770B9A01FF
:1018D00011270027409184005091850060E070E05E
:1018E000402B512B622B732B40937A0150937B0139
:1018F00060937C0170937D01B09B1AC00196092E04
:10190000000CAA0BBB0BBC01552744278091840017
:1019100090918500A0E0B0E0842B952BA62BB72BEF
:1019200080937A0190937B01A0937C01B0937D0119
:10193000E0913602F0913702309739F06EE070E0B6
:1019400080919E0190919F0109950E940506FF914B
:10195000EF91BF91AF919F918F917F916F915F9127
:101960004F913F912F911F910F910F900FBE0F90AC
:101970001F9018951F920F920FB60F9211240F937C
:101980001F932F933F934F935F936F937F938F9307
:101990009F93AF93BF93EF93FF93809178019091C2
:1019A0007901AC01092E000C660B770B9A01112707
:1019B0000027409184005091850060E070E0402B4A
:1019C000512B622B732B40937A0150937B016093D0
:1019D0007C0170937D01B09B1AC00196092E000C0A
:1019E000AA0BBB0BBC015527442780918400909122
:1019F0008500A0E0B0E0842B952BA62BB72B80931D
:101A00007A0190937B01A0937C01B0937D01E091DA
:101A10003802F0913902309739F06FE070E0809130
:101A2000A0019091A10109950E940506FF91EF91F7
:101A3000BF91AF919F918F917F916F915F914F91E6
:101A40003F912F911F910F910F900FBE0F901F90FC
:101A500018951F920F920FB60F9211240F931F9398
:101A60002F933F934F935F936F937F938F939F93A6
:101A7000AF93BF93EF93FF93809178019091790199
:101A8000AC01092E000C660B770B9A011127002779
:101A9000409184005091850060E070E0402B512B14
:101AA000622B732B40937A0150937B0160937C01EE
:101AB00070937D01B09B1AC00196092E000CAA0BF1
:101AC000BB0BBC0155274427809184009091850071
:101AD000A0E0B0E0842B952BA62BB72B80937A0146
:101AE00090937B01A0937C01B0937D01E0913A0239
:101AF000F0913B02309739F060E170E08091A201F3
:101B00009091A30109950E940506FF91EF91BF9165
:101B1000AF919F918F917F916F915F914F913F9185
:101B20002F911F910F910F900FBE0F901F9018953E
:101B30001F920F920FB60F9211240F931F932F93A2
:101B40003F934F935F936F937F938F939F93AF9345
:101B5000BF93EF93FF938091780190917901AC014D
:101B6000092E000C660B770B9A0111270027409174
:101B700084005091850060E070E0402B512B622B77
:101B8000732B40937A0150937B0160937C01709397
:101B90007D01B09B1AC00196092E000CAA0BBB0B4D
:101BA000BC01552744278091840090918500A0E0D6
:101BB000B0E0842B952BA62BB72B80937A019093C2
:101BC0007B01A0937C01B0937D01E0913C02F091F8
:101BD0003D02309739F061E170E08091A40190916D
:101BE000A50109950E940506FF91EF91BF91AF9164
:101BF0009F918F917F916F915F914F913F912F9125
:101C00001F910F910F900FBE0F901F9018950E947B
:101C10000506789481E083BF8895FCCF1F920F92D0
:101C20000FB60F9211242F933F934F935F936F93AF
:101C30007F938F939F93EF93FF938091780190917F
:101C4000790101969093790180937801E0917E016A
:101C5000F0917F01309701F1428153816481758158
:101C600086179707C9F4CA01209184003091850036
:101C7000421B530B4130510529F48091840090910F
:101C8000850001969093890080938800EFE6F0E04C
:101C900080818260808305C0EFE6F0E080818D7FE7
:101CA0008083FF91EF919F918F917F916F915F91D1
:101CB0004F913F912F910F900FBE0F901F9018954D
:101CC0001F920F920FB60F921124CF92DF92EF92D4
:101CD000FF922F933F934F935F936F937F938F93D5
:101CE0009F93AF93BF93EF93FF938091780190916F
:101CF00079016C01092E000CEE08FF087601DD2445
:101D0000CC24409184005091850060E070E0C42AAA
:101D1000D52AE62AF72AB09B1EC06C012FEFC21A03
:101D2000D20A0D2C000CEE08FF08D601992788274F
:101D3000C0908400D0908500E12CF12CC82AD92ACB
:101D4000EA2AFB2A08C08EE791E00E94D00560E8ED
:101D500071E00E946E05E0917E01F0917F01309765
:101D600069F082819381A481B5818C199D09AE09A6
:101D7000BF09181619061A061B062CF7309721F111
:101D800082819381A481B58120917801309179017C
:101D90002A173B07C9F49C014091840050918500AB
:101DA000841B950B019731F42091840030918500BC
:101DB0002F5F3F4F3093890020938800EFE6F0E0DB
:101DC00080818260808305C0EFE6F0E080818D7FB6
:101DD00080830E940506FF91EF91BF91AF919F9183
:101DE0008F917F916F915F914F913F912F91FF90D4
:101DF000EF90DF90CF900F900FBE0F901F9018952F
:101E00003F924F925F926F927F928F929F92AF928A
:101E1000BF92CF92DF92EF92FF920F931F93CF93D7
:101E2000DF932B013C0149015A018FB78078382E8E
:101E3000F89486E791E00E94D005EC011B870A87A1
:101E4000FD86EC86DF86CE86332061F0E09170015E
:101E5000F09171010280F381E02D82819381A48150
:101E6000B58108C080917A0190917B01A0917C019D
:101E7000B0917D01480E591E6A1E7B1E4A825B820C
:101E80006C827D82181419041A041B0444F00F2E6E
:101E900088248A94982CA82CFFE7BF2EF02D840C60
:101EA000951CA61CB71C8E829F82A886B98620919D
:101EB000780130917901C901032E000CAA0BBB0BEC
:101EC000DC0199278827409184005091850060E0CB
:101ED00070E0842B952BA62BB72BB09B13C0C901A8
:101EE0000196092E000CAA0BBB0BDC019927882751
:101EF000409184005091850060E070E0842B952B28
:101F0000A62BB72B481A590A6A0A7B0A141415041F
:101F100016041704ACF56EE771E0CE010E949F0530
:101F2000E0917E01F0917F01309721F182819381D0
:101F3000A481B58120917801309179012A173B075E
:101F4000C9F49C014091840050918500841B950B3D
:101F5000019731F420918400309185002F5F3F4F2D
:101F60003093890020938800EFE6F0E08081826062
:101F7000808339C0EFE6F0E080818D7F808333C0BD
:101F800060E871E0CE010E946E05332061F180911E
:101F9000740190917501892B31F1E0918001F091EC
:101FA000810186819781A085B185E0917201F091D0
:101FB00073010280F381E02D468157816085718530
:101FC000841B950BA60BB70B72F484E791E00E947B
:101FD000FB0562E771E00E94F1058091720190912A
:101FE00073010E944E05332009F07894CE01DF91F1
:101FF000CF911F910F91FF90EF90DF90CF90BF9006
:10200000AF909F908F907F906F905F904F903F9098
:102010000895CF92DF92EF92FF920F931F93CF9389
:10202000DF93EC017B016A011FB71078F894A88157
:10203000B981109719F435C0A081B1811496ED9142
:10204000FC9115973097C1F7209170013091710183
:10205000A217B30711F0111107C0112309F44AC0E8
:1020600078948FEF9FEF4EC08A819B81009719F083
:10207000FC01158214823B832A83F901D583C48332
:10208000CD010E944E05E0917001F09171018281B5
:102090009381892B31F4112381F1789480E090E0D1
:1020A00031C08091700190917101998388831123CF
:1020B00029F08A819B81019709F07894B601CE01BD
:1020C000F7010995F82E092F8FB7F8941982188215
:1020D0008A819B818230910538F01B821A82FC0133
:1020E000158214820E944E05112351F078948F2D91
:1020F000902F08C08FEF9FEF05C080E090E002C0F6
:102100008F2D902FDF91CF911F910F91FF90EF9026
:10211000DF90CF900895009170011091710180E8D7
:1021200091E00E94D005EC01F801938382837894BA
:102130006C857D854E855F858A859B850E9409100B
:102140008FB7F89466E771E0CE010E94E705E09151
:102150007201F09173010190F081E02DC281D38171
:10216000E0918001F09181013097A1F0209799F2E0
:1021700086819781A085B1854E815F81688579854B
:10218000841B950BA60BB70B181619061A061B060F
:102190000CF0C1CF82E791E00E94FB0564E771E09B
:1021A0000E94F105A0917201B091730102C0A0815B
:1021B000B1811496ED91FC9115973097C1F7CD013F
:1021C0000E944E05A8CFFC014231B8F49FB7907829
:1021D000F89450E0440F551FDA01AE57BE4FED930F
:1021E000FC93DA01A65EBD4F6D937C9321E030E055
:1021F00033832283992309F0789408958C017B011D
:102200006A018FB7F8940E94AF047894E114F10446
:1022100041F020E030E0A90160E070E0CB010E94D5
:10222000000F8FB7F8940E94070E5058BB27AA27BB
:102230000E942D110C944C120E943E1238F00E9404
:10224000451220F039F49F3F19F426F40C943B1208
:102250000EF4E095E7FB0C940C12E92F0E945D123E
:1022600058F3BA17620773078407950720F079F4CB
:10227000A6F50C9497120EF4E0950B2EBA2FA02D14
:102280000B01B90190010C01CA01A0011124FF2723
:10229000591B99F0593F50F4503E68F11A16F0401E
:1022A000A22F232F342F4427585FF3CF469537951D
:1022B0002795A795F0405395C9F77EF41F16BA0BE2
:1022C000620B730B840BBAF09150A1F0FF0FBB1F90
:1022D000661F771F881FC2F70EC0BA0F621F731FD9
:1022E000841F48F4879577956795B795F7959E3F36
:1022F00008F0B0CF9395880F08F09927EE0F9795C7
:10230000879508950E9489116894B1110C949812D0
:1023100008950E94651288F09F5798F0B92F992769
:10232000B751B0F0E1F0660F771F881F991F1AF0C0
:10233000BA95C9F714C0B13091F00E949712B1E07C
:1023400008950C949712672F782F8827B85F39F07B
:10235000B93FCCF3869577956795B395D9F73EF459
:1023600090958095709561957F4F8F4F9F4F089501
:10237000E89409C097FB3EF490958095709561951F
:102380007F4F8F4F9F4F9923A9F0F92F96E9BB27D5
:102390009395F695879577956795B795F111F8CF51
:1023A000FAF4BB0F11F460FF1BC06F5F7F4F8F4FBC
:1023B0009F4F16C0882311F096E911C0772321F0B2
:1023C0009EE8872F762F05C0662371F096E8862F4A
:1023D00070E060E02AF09A95660F771F881FDAF7A1
:1023E000880F9695879597F908950E947F1290F02F
:1023F0009F3748F4911116F00C94981260E070E049
:1024000080E89FEB089526F41B16611D711D811D48
:102410000C9412120C942D1297F99F6780E870E0CB
:1024200060E00895882371F4772321F09850872B7A
:10243000762F07C0662311F499270DC09051862B83
:1024400070E060E02AF09A95660F771F881FDAF730
:10245000880F9695879597F908959F3F31F0915091
:1024600020F4879577956795B795880F911D969578
:10247000879597F908959FEF80EC089500240A94BA
:102480001616170618060906089500240A9412164F
:102490001306140605060895092E0394000C11F482
:1024A000882352F0BB0F40F4BF2B11F460FF04C02F
:1024B0006F5F7F4F8F4F9F4F089557FD9058440F88
:1024C000551F59F05F3F71F04795880F97FB991F93
:1024D00061F09F3F79F08795089512161306140650
:1024E000551FF2CF4695F1DF08C0161617061806DD
:1024F000991FF1CF869571056105089408950E9492
:102500006512A0F0BEE7B91788F4BB279F3860F4C6
:102510001616B11D672F782F8827985FF7CF8695FD
:1025200077956795B11D93959639C8F30895E8940A
:10253000BB2766277727CB0197F90895052E97FBD0
:102540001EF400940E94B51257FD07D00E94BD12E0
:1025500007FC03D04EF40C94B5125095409530957D
:1025600021953F4F4F4F5F4F0895909580957095FF
:1025700061957F4F8F4F9F4F0895A1E21A2EAA1B9E
:10258000BB1BFD010DC0AA1FBB1FEE1FFF1FA21723
:10259000B307E407F50720F0A21BB30BE40BF50B20
:1025A000661F771F881F991F1A9469F760957095A9
:1025B000809590959B01AC01BD01CF010895DC0190
:1025C0002D923D924D925D926D927D928D929D9253
:1025D000AD92BD92CD92DD92ED92FD920D931D9341
:1025E000CD93DD93FF91EF918DB78D938EB78D9342
:1025F0008FB78D93ED93FD93882799270994DC017C
:10260000CB0181309105811D2D903D904D905D90C5
:102610006D907D908D909D90AD90BD90CD90DD9012
:10262000ED90FD900D911D91CD91DD91ED91FD917C
:102630000D90F894FEBF0FBEEDBFED91FD91099492
:04264000F894FFCF3C
:102644000100050005000100000001000100000078
:10265400010001000E000100010001000B00010057
:10266400000005000B000000010004000B00010045
:10267400010004000F00010001000100010000003E
:10268400010005000F000100010005000B0001001E
:10269400EC00ED00EE00EF00F100F200F300F400B6
:1026A400F600F700F800F900FB00FC00FD00FE0056
:0826B4003E023E02A6015B029A
:040000030000063CB7
:00000001FF
