:100000000C942E000C949F030C940E040C947D040D
:100010000C94EC040C945B050C944B000C94C60BF4
:100020000C944B000C94740B0C94CA050C94390678
:100030000C94A8060C9417070C9486070C94F507EB
:100040000C9464080C94D3080C9442090C94B109E4
:100050000C94200A0C948F0A0C94FE0A11241FBEE3
:10006000CFEFD4E0DEBFCDBF11E0A0E0B1E0EEEF16
:10007000FDE102C005900D92AA30B107D9F724E046
:10008000AAE0B1E001C01D92A336B207E1F70E94D9
:10009000E4000C94FD0E0C940000CF92DF92EF92DE
:1000A000FF920F931F931E9915C000911801109194
:1000B0001901C12CD12C0F2EF9ECEF2EF1E0FF2EFF
:1000C000F02D20E030E0A90160E070E0CB010E945B
:1000D000660C2DC01F9915C00091180110911901CF
:1000E000C12CD12C0F2EF5EEEF2EF1E0FF2EF02DCE
:1000F00020E030E0A90160E070E0CB010E94660CD6
:1001000016C01C9914C00091180110911901C12C3E
:10011000D12C0F2EF4E0EF2EF2E0FF2EF02D20E098
:1001200030E0A90160E070E0CB010E94660C1F91F5
:100130000F91FF90EF90DF90CF900895629908C0E3
:10014000FC0186819781909319018093180108958D
:10015000639907C0FC018481958190931901809374
:1001600018010895CF92DF92EF92FF920F931F93A1
:10017000CF93DF93EC010C811D8110931901009343
:100180001801C12CD12C0F2EF7E7EF2EF1E0FF2E36
:10019000F02D20E030E0A90160E070E0CB010E948A
:1001A000660C0E811F8120E030E0A90160E070E064
:1001B000CB010E94660CDF91CF911F910F91FF90B0
:1001C000EF90DF90CF900895CF93DF93CDB7DEB758
:1001D000A6970FB6F894DEBF0FBECDBF80ED85B9F0
:1001E0008CE08EB98FEF80936C0080936B008DB3A1
:1001F000806C8DBB1A8219821C821B821E821D821A
:1002000018861F821A8619861C861B8681E090E05C
:100210009E878D87988B8F879E012F5F3F4F3A8BEC
:10022000298B1C8A1B8A1E8A1D8A988F8F8B44E01B
:1002300050E05A8F498F9C8F8B8F3E8F2D8F18A245
:100240001F8E1AA219A2CE0107969CA38BA30C960F
:100250009EA38DA341E06EE970E00C960E94490ECA
:1002600042E06DE470E0CE014F960E94490E40E0FE
:1002700050E062EB70E0CE014F960E94640EA696AD
:100280000FB6F894DEBF0FBECDBFDF91CF910895BA
:10029000FC01248135812130310569F46115710536
:1002A00011F41EB804C06130710509F41EB8FC01D8
:1002B000158214820895232B79F46115710511F4C8
:1002C00020E12EB96130710511F420E42EB921E04E
:1002D00030E0FC013583248308956115710511F424
:1002E0001EB808956130710509F41EB80895CF92C3
:1002F000DF92EF92FF920F931F93CF93DF93EC0166
:10030000888599858130910539F56C817D8170935F
:100310000B0160930A018A859B850E9448012E810A
:100320003F81032E000C440B550B69E07DE380E018
:1003300090E00E947B0ECA01B901C12CD12C0F2E76
:10034000F7E7EF2EF1E0FF2EF02D8E0120E030E0F8
:10035000A9010E94660C14C0892B91F40A851B85A3
:10036000CC80DD800F2EFDE6EF2EF1E0FF2EF02D8C
:1003700020E030E0A90160E070E0CB010E94660C53
:10038000DF91CF911F910F91FF90EF90DF90CF9071
:10039000089520910C0130910D012F5F3F4F309354
:1003A0000D0120930C0120910001309101012F5F7C
:1003B0003F4F3093010120930001FC0126813781DA
:1003C0002F5F3F4F37832683089520910A01309194
:1003D0000B012F5F3F4F30930B0120930A012091B7
:1003E0000001309101012150310930930101209326
:1003F0000001FC01268137812230310524F0215093
:100400003109378326830895FC0120853185213009
:10041000310519F4118610860895232B29F421E063
:1004200030E0FC01318720870895CF93DF9300D01F
:1004300000D0CDB7DEB780E090E018C0AC014F5FD0
:100440005F4F9A0122953295307F3227207F3227E5
:100450002D503E4F82959295907F9827807F9827C8
:10046000FC01ED50FE4F31832083CA018E3091058F
:100470002CF31092D4021092D30280E090E015C0C9
:10048000AC014F5F5F4F6DE1649F9001659F300D40
:100490001124225C3E4F689FF001699FF00D1124EA
:1004A000E25CFE4F31832083CA018330910544F31F
:1004B00010929601109295011A82198232C02DE194
:1004C00049815A81249FC001259F900D1124FC0170
:1004D000EC5BFE4FFC83EB83CF010E94BC0E20E659
:1004E00049815A81249FC001259F900D1124815C70
:1004F0009C4FEB81FC81918B808B938B828B81EF66
:100500009DE0968B858B8DE1849FF001859FF00D9A
:100510001124E25CFE4F158214824F5F5F4F5A83B5
:10052000498329813A81243031054CF2E6EDF1E02E
:10053000118210821582148213821282E1E6F0E0A9
:1005400080E880831082109285001092840084E0FD
:100550008093810081E080936F000F900F900F9047
:100560000F90DF91CF910895CF93DF9300D0CDB757
:10057000DEB79A83898380910201909103010696E8
:100580000E94BC0E892B59F489819A8190930301B2
:100590008093020161E070E006960E94DC0E0F90ED
:1005A0000F90DF91CF9108950F931F93CF93DF9317
:1005B000DC01CB01EB01E881F981C0E0D0E004C0AF
:1005C000EF010190F081E02D309779F006811781DD
:1005D0002085318516964D915D916D917C9119978D
:1005E00040175107620773075CF71196FC93EE936F
:1005F000209721F4FC01B183A08302C0B983A883B2
:10060000DF91CF911F910F9108950F931F93CF9377
:10061000DF93DC01CB01EB01E881F981C0E0D0E0A0
:1006200004C0EF010190F081E02D309779F0028154
:1006300013812481358112964D915D916D917C914C
:10064000159740175107620773075CF71196FC93E3
:10065000EE93209721F4FC01B183A08302C0B983FB
:10066000A883DF91CF911F910F910895DC01ED9147
:10067000FC911197309759F48FEF8093EC008093A1
:10068000ED008093EE0081E083BF8895FCCF208150
:1006900031812D933C93CF010895FB01208131815D
:1006A000FC0131832083FB01918380830895FB014A
:1006B00020813181FC0131832083FB019183808380
:1006C0000895DC01ED91FC911197208131812D93EA
:1006D0003C93CF010895CF93DF93E0910401F09113
:1006E0000501C281D381E0911601F0911701309785
:1006F00019F18091060190910701892BE9F020976B
:1007000069F086819781A085B1854E815F8168857A
:100710007985841B950BA60BB70B72F486E091E0EC
:100720000E94610364E071E00E945703809104011C
:10073000909105010E94B402DF91CF9108951F921C
:100740000F920FB60F9211240F931F932F933F9385
:100750004F935F936F937F938F939F93AF93BF93C9
:10076000EF93FF9380910E0190910F01AC01092E40
:10077000000C660B770B9A0111270027409184002B
:100780005091850060E070E0402B512B622B732B61
:100790004093100150931101609312017093130163
:1007A000B09B1AC00196092E000CAA0BBB0BBC0112
:1007B000552744278091840090918500A0E0B0E007
:1007C000842B952BA62BB72B8093100190931101AE
:1007D000A0931201B0931301E091B201F091B30123
:1007E000309739F060E070E080911A0190911B0120
:1007F00009950E946B03FF91EF91BF91AF919F917B
:100800008F917F916F915F914F913F912F911F91A8
:100810000F910F900FBE0F901F9018951F920F927F
:100820000FB60F9211240F931F932F933F934F9363
:100830005F936F937F938F939F93AF93BF93EF9348
:10084000FF9380910E0190910F01AC01092E000CD5
:10085000660B770B9A011127002740918400509175
:10086000850060E070E0402B512B622B732B40938E
:100870001001509311016093120170931301B09B0A
:100880001AC00196092E000CAA0BBB0BBC01552700
:1008900044278091840090918500A0E0B0E0842BF3
:1008A000952BA62BB72B8093100190931101A09349
:1008B0001201B0931301E091B401F091B5013097AA
:1008C00039F061E070E080911C0190911D01099563
:1008D0000E946B03FF91EF91BF91AF919F918F9118
:1008E0007F916F915F914F913F912F911F910F9148
:1008F0000F900FBE0F901F9018951F920F920FB67A
:100900000F9211240F931F932F933F934F935F9355
:100910006F937F938F939F93AF93BF93EF93FF93C7
:1009200080910E0190910F01AC01092E000C660B15
:10093000770B9A0111270027409184005091850080
:1009400060E070E0402B512B622B732B4093100121
:10095000509311016093120170931301B09B1AC060
:100960000196092E000CAA0BBB0BBC01552744278E
:100970008091840090918500A0E0B0E0842B952BBD
:10098000A62BB72B8093100190931101A093120115
:10099000B0931301E091B601F091B701309739F0AF
:1009A00062E070E080911E0190911F0109950E9404
:1009B0006B03FF91EF91BF91AF919F918F917F91C9
:1009C0006F915F914F913F912F911F910F910F90D8
:1009D0000FBE0F901F9018951F920F920FB60F9297
:1009E00011240F931F932F933F934F935F936F9314
:1009F0007F938F939F93AF93BF93EF93FF938091D8
:100A00000E0190910F01AC01092E000C660B770BC3
:100A10009A0111270027409184005091850060E0E1
:100A200070E0402B512B622B732B4093100150939D
:100A300011016093120170931301B09B1AC00196CB
:100A4000092E000CAA0BBB0BBC0155274427809133
:100A5000840090918500A0E0B0E0842B952BA62B1C
:100A6000B72B8093100190931101A0931201B093C2
:100A70001301E091B801F091B901309739F063E0CA
:100A800070E0809120019091210109950E946B03F3
:100A9000FF91EF91BF91AF919F918F917F916F9156
:100AA0005F914F913F912F911F910F910F900FBE2A
:100AB0000F901F9018951F920F920FB60F9211244E
:100AC0000F931F932F933F934F935F936F937F9356
:100AD0008F939F93AF93BF93EF93FF9380910E01FA
:100AE00090910F01AC01092E000C660B770B9A0157
:100AF00011270027409184005091850060E070E04C
:100B0000402B512B622B732B4093100150931101FA
:100B10006093120170931301B09B1AC00196092EC5
:100B2000000CAA0BBB0BBC01552744278091840005
:100B300090918500A0E0B0E0842B952BA62BB72BDD
:100B40008093100190931101A0931201B0931301AF
:100B5000E091BA01F091BB01309739F064E070E0A8
:100B6000809122019091230109950E946B03FF91CE
:100B7000EF91BF91AF919F918F917F916F915F9115
:100B80004F913F912F911F910F910F900FBE0F909A
:100B90001F9018951F920F920FB60F9211240F936A
:100BA0001F932F933F934F935F936F937F938F93F5
:100BB0009F93AF93BF93EF93FF9380910E0190911A
:100BC0000F01AC01092E000C660B770B9A0111275F
:100BD0000027409184005091850060E070E0402B38
:100BE000512B622B732B4093100150931101609392
:100BF000120170931301B09B1AC00196092E000CCC
:100C0000AA0BBB0BBC01552744278091840090910F
:100C10008500A0E0B0E0842B952BA62BB72B80930A
:100C2000100190931101A0931201B0931301E09170
:100C3000BC01F091BD01309739F065E070E0809122
:100C400024019091250109950E946B03FF91EF917A
:100C5000BF91AF919F918F917F916F915F914F91D4
:100C60003F912F911F910F910F900FBE0F901F90EA
:100C700018951F920F920FB60F9211240F931F9386
:100C80002F933F934F935F936F937F938F939F9394
:100C9000AF93BF93EF93FF9380910E0190910F015B
:100CA000AC01092E000C660B770B9A011127002767
:100CB000409184005091850060E070E0402B512B02
:100CC000622B732B4093100150931101609312011A
:100CD00070931301B09B1AC00196092E000CAA0B49
:100CE000BB0BBC015527442780918400909185005F
:100CF000A0E0B0E0842B952BA62BB72B809310019E
:100D000090931101A0931201B0931301E091BE01E1
:100D1000F091BF01309739F066E070E080912601D4
:100D20009091270109950E946B03FF91EF91BF916C
:100D3000AF919F918F917F916F915F914F913F9173
:100D40002F911F910F910F900FBE0F901F9018952C
:100D50001F920F920FB60F9211240F931F932F9390
:100D60003F934F935F936F937F938F939F93AF9333
:100D7000BF93EF93FF9380910E0190910F01AC010F
:100D8000092E000C660B770B9A0111270027409162
:100D900084005091850060E070E0402B512B622B65
:100DA000732B4093100150931101609312017093C3
:100DB0001301B09B1AC00196092E000CAA0BBB0BA5
:100DC000BC01552744278091840090918500A0E0C4
:100DD000B0E0842B952BA62BB72B8093100190931A
:100DE0001101A0931201B0931301E091C001F091A1
:100DF000C101309739F067E070E08091280190914F
:100E0000290109950E946B03FF91EF91BF91AF916A
:100E10009F918F917F916F915F914F913F912F9112
:100E20001F910F910F900FBE0F901F9018951F925A
:100E30000F920FB60F9211240F931F932F933F938E
:100E40004F935F936F937F938F939F93AF93BF93D2
:100E5000EF93FF9380910E0190910F01AC01092E49
:100E6000000C660B770B9A01112700274091840034
:100E70005091850060E070E0402B512B622B732B6A
:100E8000409310015093110160931201709313016C
:100E9000B09B1AC00196092E000CAA0BBB0BBC011B
:100EA000552744278091840090918500A0E0B0E010
:100EB000842B952BA62BB72B8093100190931101B7
:100EC000A0931201B0931301E091C201F091C3010C
:100ED000309739F068E070E080912A0190912B0101
:100EE00009950E946B03FF91EF91BF91AF919F9184
:100EF0008F917F916F915F914F913F912F911F91B2
:100F00000F910F900FBE0F901F9018951F920F9288
:100F10000FB60F9211240F931F932F933F934F936C
:100F20005F936F937F938F939F93AF93BF93EF9351
:100F3000FF9380910E0190910F01AC01092E000CDE
:100F4000660B770B9A01112700274091840050917E
:100F5000850060E070E0402B512B622B732B409397
:100F60001001509311016093120170931301B09B13
:100F70001AC00196092E000CAA0BBB0BBC01552709
:100F800044278091840090918500A0E0B0E0842BFC
:100F9000952BA62BB72B8093100190931101A09352
:100FA0001201B0931301E091C401F091C501309793
:100FB00039F069E070E080912C0190912D01099544
:100FC0000E946B03FF91EF91BF91AF919F918F9121
:100FD0007F916F915F914F913F912F911F910F9151
:100FE0000F900FBE0F901F9018951F920F920FB683
:100FF0000F9211240F931F932F933F934F935F935F
:101000006F937F938F939F93AF93BF93EF93FF93D0
:1010100080910E0190910F01AC01092E000C660B1E
:10102000770B9A0111270027409184005091850089
:1010300060E070E0402B512B622B732B409310012A
:10104000509311016093120170931301B09B1AC069
:101050000196092E000CAA0BBB0BBC015527442797
:101060008091840090918500A0E0B0E0842B952BC6
:10107000A62BB72B8093100190931101A09312011E
:10108000B0931301E091C601F091C701309739F098
:101090006AE070E080912E0190912F0109950E94E5
:1010A0006B03FF91EF91BF91AF919F918F917F91D2
:1010B0006F915F914F913F912F911F910F910F90E1
:1010C0000FBE0F901F9018951F920F920FB60F92A0
:1010D00011240F931F932F933F934F935F936F931D
:1010E0007F938F939F93AF93BF93EF93FF938091E1
:1010F0000E0190910F01AC01092E000C660B770BCD
:101100009A0111270027409184005091850060E0EA
:1011100070E0402B512B622B732B409310015093A6
:1011200011016093120170931301B09B1AC00196D4
:10113000092E000CAA0BBB0BBC015527442780913C
:10114000840090918500A0E0B0E0842B952BA62B25
:10115000B72B8093100190931101A0931201B093CB
:101160001301E091C801F091C901309739F06BE0AB
:1011700070E0809130019091310109950E946B03DC
:10118000FF91EF91BF91AF919F918F917F916F915F
:101190005F914F913F912F911F910F910F900FBE33
:1011A0000F901F9018951F920F920FB60F92112457
:1011B0000F931F932F933F934F935F936F937F935F
:1011C0008F939F93AF93BF93EF93FF9380910E0103
:1011D00090910F01AC01092E000C660B770B9A0160
:1011E00011270027409184005091850060E070E055
:1011F000402B512B622B732B409310015093110104
:101200006093120170931301B09B1AC00196092ECE
:10121000000CAA0BBB0BBC0155274427809184000E
:1012200090918500A0E0B0E0842B952BA62BB72BE6
:101230008093100190931101A0931201B0931301B8
:10124000E091CA01F091CB01309739F06CE070E089
:10125000809132019091330109950E946B03FF91B7
:10126000EF91BF91AF919F918F917F916F915F911E
:101270004F913F912F911F910F910F900FBE0F90A3
:101280001F9018951F920F920FB60F9211240F9373
:101290001F932F933F934F935F936F937F938F93FE
:1012A0009F93AF93BF93EF93FF9380910E01909123
:1012B0000F01AC01092E000C660B770B9A01112768
:1012C0000027409184005091850060E070E0402B41
:1012D000512B622B732B409310015093110160939B
:1012E000120170931301B09B1AC00196092E000CD5
:1012F000AA0BBB0BBC015527442780918400909119
:101300008500A0E0B0E0842B952BA62BB72B809313
:10131000100190931101A0931201B0931301E09179
:10132000CC01F091CD01309739F06DE070E0809103
:1013300034019091350109950E946B03FF91EF9163
:10134000BF91AF919F918F917F916F915F914F91DD
:101350003F912F911F910F910F900FBE0F901F90F3
:1013600018951F920F920FB60F9211240F931F938F
:101370002F933F934F935F936F937F938F939F939D
:10138000AF93BF93EF93FF9380910E0190910F0164
:10139000AC01092E000C660B770B9A011127002770
:1013A000409184005091850060E070E0402B512B0B
:1013B000622B732B40931001509311016093120123
:1013C00070931301B09B1AC00196092E000CAA0B52
:1013D000BB0BBC0155274427809184009091850068
:1013E000A0E0B0E0842B952BA62BB72B80931001A7
:1013F00090931101A0931201B0931301E091CE01DB
:10140000F091CF01309739F06EE070E080913601B5
:101410009091370109950E946B03FF91EF91BF9165
:10142000AF919F918F917F916F915F914F913F917C
:101430002F911F910F910F900FBE0F901F90189535
:101440001F920F920FB60F9211240F931F932F9399
:101450003F934F935F936F937F938F939F93AF933C
:10146000BF93EF93FF9380910E0190910F01AC0118
:10147000092E000C660B770B9A011127002740916B
:1014800084005091850060E070E0402B512B622B6E
:10149000732B4093100150931101609312017093CC
:1014A0001301B09B1AC00196092E000CAA0BBB0BAE
:1014B000BC01552744278091840090918500A0E0CD
:1014C000B0E0842B952BA62BB72B80931001909323
:1014D0001101A0931201B0931301E091D001F0919A
:1014E000D101309739F06FE070E080913801909130
:1014F000390109950E946B03FF91EF91BF91AF9164
:101500009F918F917F916F915F914F913F912F911B
:101510001F910F910F900FBE0F901F9018951F9263
:101520000F920FB60F9211240F931F932F933F9397
:101530004F935F936F937F938F939F93AF93BF93DB
:10154000EF93FF9380910E0190910F01AC01092E52
:10155000000C660B770B9A0111270027409184003D
:101560005091850060E070E0402B512B622B732B73
:101570004093100150931101609312017093130175
:10158000B09B1AC00196092E000CAA0BBB0BBC0124
:10159000552744278091840090918500A0E0B0E019
:1015A000842B952BA62BB72B8093100190931101C0
:1015B000A0931201B0931301E091D201F091D301F5
:1015C000309739F060E170E080913A0190913B01F1
:1015D00009950E946B03FF91EF91BF91AF919F918D
:1015E0008F917F916F915F914F913F912F911F91BB
:1015F0000F910F900FBE0F901F9018951F920F9292
:101600000FB60F9211240F931F932F933F934F9375
:101610005F936F937F938F939F93AF93BF93EF935A
:10162000FF9380910E0190910F01AC01092E000CE7
:10163000660B770B9A011127002740918400509187
:10164000850060E070E0402B512B622B732B4093A0
:101650001001509311016093120170931301B09B1C
:101660001AC00196092E000CAA0BBB0BBC01552712
:1016700044278091840090918500A0E0B0E0842B05
:10168000952BA62BB72B8093100190931101A0935B
:101690001201B0931301E091D401F091D50130977C
:1016A00039F061E170E080913C0190913D01099534
:1016B0000E946B03FF91EF91BF91AF919F918F912A
:1016C0007F916F915F914F913F912F911F910F915A
:1016D0000F900FBE0F901F9018950E946B03789487
:1016E00081E083BF8895FCCF1F920F920FB60F92B7
:1016F00011242F933F934F935F936F937F938F9317
:101700009F93EF93FF9380910E0190910F010196AB
:1017100090930F0180930E01E0911401F091150157
:10172000309701F142815381648175818617970753
:10173000C9F4CA012091840030918500421B530BEB
:101740004130510529F480918400909185000196E3
:101750009093890080938800EFE6F0E080818260BA
:10176000808305C0EFE6F0E080818D7F8083FF916C
:10177000EF919F918F917F916F915F914F913F91E9
:101780002F910F900FBE0F901F9018951F920F92E0
:101790000FB60F921124CF92DF92EF92FF922F9308
:1017A0003F934F935F936F937F938F939F93AF93E9
:1017B000BF93EF93FF9380910E0190910F016C0105
:1017C000092E000CEE08FF087601DD24CC244091A0
:1017D00084005091850060E070E0C42AD52AE62A92
:1017E000F72AB09B1EC06C012FEFC21AD20A0D2C33
:1017F000000CEE08FF08D60199278827C0908400C6
:10180000D0908500E12CF12CC82AD92AEA2AFB2A9B
:1018100008C084E191E00E94360366E171E00E9415
:10182000D402E0911401F0911501309769F08281A2
:101830009381A481B5818C199D09AE09BF09181641
:1018400019061A061B062CF7309721F18281938125
:10185000A481B58120910E0130910F012A173B0719
:10186000C9F49C014091840050918500841B950B24
:10187000019731F420918400309185002F5F3F4F14
:101880003093890020938800EFE6F0E08081826049
:10189000808305C0EFE6F0E080818D7F80830E9429
:1018A0006B03FF91EF91BF91AF919F918F917F91CA
:1018B0006F915F914F913F912F91FF90EF90DF904B
:1018C000CF900F900FBE0F901F9018953F924F92A0
:1018D0005F926F927F928F929F92AF92BF92CF92C0
:1018E000DF92EF92FF920F931F93CF93DF932B0121
:1018F0003C0149015A018FB78078382EF89488E06E
:1019000091E00E943603EC011B870A87FD86EC8676
:10191000DF86CE86332061F0E0910201F091030171
:101920000280F381E02D82819381A481B58108C07A
:101930008091100190911101A0911201B0911301B9
:10194000480E591E6A1E7B1E4A825B826C827D8213
:10195000181419041A041B0444F00F2E88248A94C6
:10196000982CA82CFFE7BF2EF02D840C951CA61CEC
:10197000B71C8E829F82A886B98620910E01309175
:101980000F01C901032E000CAA0BBB0BDC01992728
:101990008827409184005091850060E070E0842B9E
:1019A000952BA62BB72BB09B13C0C9010196092E0E
:1019B000000CAA0BBB0BDC019927882740918400FF
:1019C0005091850060E070E0842B952BA62BB72BFF
:1019D000481A590A6A0A7B0A1414150416041704D3
:1019E000ACF564E171E0CE010E940503E0911401C1
:1019F000F0911501309721F182819381A481B58105
:101A000020910E0130910F012A173B07C9F49C0168
:101A10004091840050918500841B950B019731F40F
:101A200020918400309185002F5F3F4F30938900D3
:101A300020938800EFE6F0E080818260808339C0E7
:101A4000EFE6F0E080818D7F808333C066E171E056
:101A5000CE010E94D402332061F180910601909161
:101A60000701892B31F1E0911601F0911701868170
:101A70009781A085B185E0910401F0910501028074
:101A8000F381E02D4681578160857185841B950B1C
:101A9000A60BB70B72F486E091E00E94610364E04C
:101AA00071E00E94570380910401909105010E940A
:101AB000B402332009F07894CE01DF91CF911F91C9
:101AC0000F91FF90EF90DF90CF90BF90AF909F90DD
:101AD0008F907F906F905F904F903F900895CF923E
:101AE000DF92EF92FF920F931F93CF93DF93EC015E
:101AF0007B016A011FB71078F894A881B98110970B
:101B000019F435C0A081B1811496ED91FC9115971F
:101B10003097C1F72091020130910301A217B3075A
:101B200011F0111107C0112309F44AC078948FEF06
:101B30009FEF4EC08A819B81009719F0FC011582AE
:101B400014823B832A83F901D583C483CD010E948B
:101B5000B402E0910201F091030182819381892B0B
:101B600031F4112381F1789480E090E031C08091CC
:101B700002019091030199838883112329F08A81BE
:101B80009B81019709F07894B601CE01F701099580
:101B9000F82E092F8FB7F894198218828A819B81B9
:101BA0008230910538F01B821A82FC011582148262
:101BB0000E94B402112351F078948F2D902F08C009
:101BC0008FEF9FEF05C080E090E002C08F2D902F37
:101BD000DF91CF911F910F91FF90EF90DF90CF9009
:101BE0000895009102011091030186E191E00E94A5
:101BF0003603EC01F8019383828378946C857D85AC
:101C00004E855F858A859B850E946F0D8FB7F894FE
:101C100068E071E0CE010E944D03E0910401F09173
:101C200005010190F081E02DC281D381E091160180
:101C3000F09117013097A1F0209799F28681978152
:101C4000A085B1854E815F8168857985841B950B60
:101C5000A60BB70B181619061A061B060CF0C1CFF7
:101C600084E091E00E94610366E071E00E94570306
:101C7000A0910401B091050102C0A081B181149628
:101C8000ED91FC9115973097C1F7CD010E94B402F8
:101C9000A8CFFC014231B8F49FB79078F89450E097
:101CA000440F551FDA01A65EBE4FED93FC93DA0197
:101CB000AE54BE4F6D937C9321E030E0338322839A
:101CC000992309F0789408958C017B016A018FB7FC
:101CD000F8940E9415027894E114F10441F020E098
:101CE00030E0A90160E070E0CB010E94660C8FB784
:101CF000F8940E946D0B052E97FB1EF400940E9431
:101D0000920E57FD07D00E949A0E07FC03D04EF4A6
:101D10000C94920E50954095309521953F4F4F4F22
:101D20005F4F089590958095709561957F4F8F4F87
:101D30009F4F0895A1E21A2EAA1BBB1BFD010DC0E7
:101D4000AA1FBB1FEE1FFF1FA217B307E407F5076B
:101D500020F0A21BB30BE40BF50B661F771F881F47
:101D6000991F1A9469F760957095809590959B01DD
:101D7000AC01BD01CF010895DC012D923D924D9241
:101D80005D926D927D928D929D92AD92BD92CD921B
:101D9000DD92ED92FD920D931D93CD93DD93FF9116
:101DA000EF918DB78D938EB78D938FB78D93ED9304
:101DB000FD93882799270994DC01CB018130910597
:101DC000811D2D903D904D905D906D907D908D90FA
:101DD0009D90AD90BD90CD90DD90ED90FD900D91DA
:101DE0001D91CD91DD91ED91FD910D90F894FEBF87
:0E1DF0000FBEEDBFED91FD910994F894FFCF69
:0A1DFE000100D601D6013E01F301F9
:040000030000016494
:00000001FF
