S00D00004C616220342E73726563B4
S11300000C942E000C94AB020C941A030C948903E8
S11300100C94F8030C9467040C944B000C94D20ACF
S11300200C944B000C94800A0C94D6040C94450553
S11300300C94B4050C9423060C9492060C940107BA
S11300400C9470070C94DF070C944E080C94BD08B4
S11300500C942C090C949B090C940A0A11241FBEBD
S1130060CFEFD4E0DEBFCDBF11E0A0E0B1E0E6E128
S1130070FCE102C005900D92A830B107D9F724E045
S1130080A8E0B1E001C01D92AB35B207E1F70E94D0
S11300904D000C94090E0C940000CF93DF93CDB760
S11300A0DEB762970FB6F894DEBF0FBECDBF80ED0A
S11300B085B98CE08EB98FEF80936C0080936B00D0
S11300C08DB3806C8DBB1A8219821C821B821E82A6
S11300D01D8218861F821A8619861C861B8683E059
S11300E090E09E878D8781E090E0988B8F87CE018A
S11300F001969A8B898B41E060E271E006960E943A
S1130100550D42E066EC70E0CE0107960E94550D55
S113011040E050E060E070E080E090E00E94700D0C
S113012062960FB6F894DEBF0FBECDBFDF91CF91BC
S11301300895FC0124813581232B89F4611571050F
S113014019F420E12EB905C06130710511F420E4E1
S11301502EB921E030E0FC01358324830895611534
S1130160710511F41EB804C06130710509F41EB89C
S1130170FC011582148208956115710511F41EB8ED
S113018008956130710509F41EB80895CF92DF9285
S1130190EF92FF920F931F93CF93DF93EC01888527
S11301A099858130910579F50A851B85CC80DD80A0
S11301B00F2EF9E9EF2EF0E0FF2EF02D20E030E0D5
S11301C0A90160E070E0CB010E94720B2E813F8197
S11301D0032E000C440B550B69E07DE380E090E0B6
S11301E00E94870DCA01B901C12CD12C0F2EF6EC47
S11301F0EF2EF0E0FF2EF02D8E0120E030E0A9017B
S11302000E94720B14C0892B91F40A851B85CC8043
S1130210DD800F2EFCEBEF2EF0E0FF2EF02D20E022
S113022030E0A90160E070E0CB010E94720BDF9125
S1130230CF911F910F91FF90EF90DF90CF90089591
S11302400895CF93DF9300D000D0CDB7DEB780E020
S113025090E018C0AC014F5F5F4F9A012295329530
S1130260307F3227207F322725513E4F8295929549
S1130270907F9827807F9827FC01E551FE4F3183BA
S11302802083CA018E3091052CF31092CC02109277
S1130290CB0280E090E015C0AC014F5F5F4F6DE191
S11302A0649F9001659F300D11242A5C3E4F689F26
S11302B0F001699FF00D1124EA5CFE4F3183208325
S11302C0CA018330910544F310928E0110928D017E
S11302D01A82198232C02DE149815A81249FC001BA
S11302E0259F900D1124FC01E45CFE4FFC83EB83FD
S11302F0CF010E94C80D20E649815A81249FC00184
S1130300259F900D1124895C9C4FEB81FC81918B7E
S1130310808B938B828B8DEF9CE0968B858B8DE10C
S1130320849FF001859FF00D1124EA5CFE4F158235
S113033014824F5F5F4F5A83498329813A81243065
S113034031054CF2EEECF1E0118210821582148238
S113035013821282E1E6F0E080E88083108210923A
S113036085001092840084E08093810081E0809372
S11303706F000F900F900F900F90DF91CF91089521
S1130380CF93DF9300D0CDB7DEB79A838983809172
S113039000019091010106960E94C80D892B59F421
S11303A089819A81909301018093000161E070E05A
S11303B006960E94E80D0F900F90DF91CF9108955B
S11303C00F931F93CF93DF93DC01CB01EB01E88103
S11303D0F981C0E0D0E004C0EF010190F081E02D8C
S11303E0309779F0068117812085318516964D91D5
S11303F05D916D917C9119974017510762077307BE
S11304005CF71196FC93EE93209721F4FC01B183E1
S1130410A08302C0B983A883DF91CF911F910F916C
S113042008950F931F93CF93DF93DC01CB01EB016E
S1130430E881F981C0E0D0E004C0EF010190F081CF
S1130440E02D309779F00281138124813581129651
S11304504D915D916D917C911597401751076207FD
S113046073075CF71196FC93EE93209721F4FC013B
S1130470B183A08302C0B983A883DF91CF911F9178
S11304800F910895DC01ED91FC911197309759F487
S11304908FEF8093EC008093ED008093EE0081E079
S11304A083BF8895FCCF208131812D933C93CF016C
S11304B00895FB0120813181FC0131832083FB01FC
S11304C0918380830895FB0120813181FC01318374
S11304D02083FB01918380830895DC01ED91FC91DD
S11304E01197208131812D933C93CF010895CF93AF
S11304F0DF93E0910201F0910301C281D381E09185
S11305001001F0911101309719F18091040190913B
S11305100501892BE9F0209769F086819781A085F0
S1130520B1854E815F8168857985841B950BA60B07
S1130530B70B72F484E091E00E946D0262E071E016
S11305400E94630280910201909103010E94C00104
S1130550DF91CF9108951F920F920FB60F9211243D
S11305600F931F932F933F934F935F936F937F93B7
S11305708F939F93AF93BF93EF93FF938091080161
S113058090910901AC01092E000C660B770B9A01BE
S113059011270027409184005091850060E070E0AD
S11305A0402B512B622B732B40930A0150930B0168
S11305B060930C0170930D01B09B1AC00196092E33
S11305C0000CAA0BBB0BBC01552744278091840067
S11305D090918500A0E0B0E0842B952BA62BB72B3F
S11305E080930A0190930B01A0930C01B0930D0129
S11305F0E091AA01F091AB01309739F060E070E02E
S1130600809112019091130109950E947702FF9144
S1130610EF91BF91AF919F918F917F916F915F9176
S11306204F913F912F911F910F910F900FBE0F90FB
S11306301F9018951F920F920FB60F9211240F93CB
S11306401F932F933F934F935F936F937F938F9356
S11306509F93AF93BF93EF93FF9380910801909181
S11306600901AC01092E000C660B770B9A011127C6
S11306700027409184005091850060E070E0402B99
S1130680512B622B732B40930A0150930B016093FF
S11306900C0170930D01B09B1AC00196092E000C39
S11306A0AA0BBB0BBC015527442780918400909171
S11306B08500A0E0B0E0842B952BA62BB72B80936C
S11306C00A0190930B01A0930C01B0930D01E091EA
S11306D0AC01F091AD01309739F061E070E08091A8
S11306E014019091150109950E947702FF91EF91F1
S11306F0BF91AF919F918F917F916F915F914F9136
S11307003F912F911F910F910F900FBE0F901F904B
S113071018951F920F920FB60F9211240F931F93E7
S11307202F933F934F935F936F937F938F939F93F5
S1130730AF93BF93EF93FF938091080190910901C8
S1130740AC01092E000C660B770B9A0111270027C8
S1130750409184005091850060E070E0402B512B63
S1130760622B732B40930A0150930B0160930C018D
S113077070930D01B09B1AC00196092E000CAA0BB0
S1130780BB0BBC01552744278091840090918500C0
S1130790A0E0B0E0842B952BA62BB72B80930A0105
S11307A090930B01A0930C01B0930D01E091AE0165
S11307B0F091AF01309739F062E070E0809116015A
S11307C09091170109950E947702FF91EF91BF91D3
S11307D0AF919F918F917F916F915F914F913F91D5
S11307E02F911F910F910F900FBE0F901F9018958E
S11307F01F920F920FB60F9211240F931F932F93F2
S11308003F934F935F936F937F938F939F93AF9394
S1130810BF93EF93FF938091080190910901AC017C
S1130820092E000C660B770B9A01112700274091C3
S113083084005091850060E070E0402B512B622BC6
S1130840732B40930A0150930B0160930C01709336
S11308500D01B09B1AC00196092E000CAA0BBB0B0C
S1130860BC01552744278091840090918500A0E025
S1130870B0E0842B952BA62BB72B80930A01909381
S11308800B01A0930C01B0930D01E091B001F09124
S1130890B101309739F063E070E0809118019091D4
S11308A0190109950E947702FF91EF91BF91AF91D1
S11308B09F918F917F916F915F914F913F912F9174
S11308C01F910F910F900FBE0F901F9018951F92BC
S11308D00F920FB60F9211240F931F932F933F93F0
S11308E04F935F936F937F938F939F93AF93BF9334
S11308F0EF93FF938091080190910901AC01092EB7
S1130900000C660B770B9A01112700274091840095
S11309105091850060E070E0402B512B622B732BCB
S113092040930A0150930B0160930C0170930D01E5
S1130930B09B1AC00196092E000CAA0BBB0BBC017C
S1130940552744278091840090918500A0E0B0E071
S1130950842B952BA62BB72B80930A0190930B0124
S1130960A0930C01B0930D01E091B201F091B30199
S1130970309739F064E070E080911A0190911B0186
S113098009950E947702FF91EF91BF91AF919F91DA
S11309908F917F916F915F914F913F912F911F9113
S11309A00F910F900FBE0F901F9018951F920F92EA
S11309B00FB60F9211240F931F932F933F934F93CE
S11309C05F936F937F938F939F93AF93BF93EF93B3
S11309D0FF938091080190910901AC01092E000C4C
S11309E0660B770B9A0111270027409184005091E0
S11309F0850060E070E0402B512B622B732B4093F9
S1130A000A0150930B0160930C0170930D01B09B8C
S1130A101AC00196092E000CAA0BBB0BBC0155276A
S1130A2044278091840090918500A0E0B0E0842B5D
S1130A30952BA62BB72B80930A0190930B01A093BF
S1130A400C01B0930D01E091B401F091B501309720
S1130A5039F065E070E080911C0190911D010995C9
S1130A600E947702FF91EF91BF91AF919F918F9177
S1130A707F916F915F914F913F912F911F910F91B2
S1130A800F900FBE0F901F9018951F920F920FB6E4
S1130A900F9211240F931F932F933F934F935F93C0
S1130AA06F937F938F939F93AF93BF93EF93FF9332
S1130AB08091080190910901AC01092E000C660B8C
S1130AC0770B9A01112700274091840050918500EB
S1130AD060E070E0402B512B622B732B40930A0192
S1130AE050930B0160930C0170930D01B09B1AC0DD
S1130AF00196092E000CAA0BBB0BBC0155274427F9
S1130B008091840090918500A0E0B0E0842B952B27
S1130B10A62BB72B80930A0190930B01A0930C0191
S1130B20B0930D01E091B601F091B701309739F01F
S1130B3066E070E080911E0190911F0109950E946A
S1130B407702FF91EF91BF91AF919F918F917F9128
S1130B506F915F914F913F912F911F910F910F9042
S1130B600FBE0F901F9018951F920F920FB60F9201
S1130B7011240F931F932F933F934F935F936F937E
S1130B807F938F939F93AF93BF93EF93FF93809142
S1130B90080190910901AC01092E000C660B770B3A
S1130BA09A0111270027409184005091850060E04C
S1130BB070E0402B512B622B732B40930A0150930E
S1130BC00B0160930C0170930D01B09B1AC0019648
S1130BD0092E000CAA0BBB0BBC015527442780919E
S1130BE0840090918500A0E0B0E0842B952BA62B87
S1130BF0B72B80930A0190930B01A0930C01B0933F
S1130C000D01E091B801F091B901309739F067E036
S1130C1070E0809120019091210109950E94770252
S1130C20FF91EF91BF91AF919F918F917F916F91C0
S1130C305F914F913F912F911F910F910F900FBE94
S1130C400F901F9018951F920F920FB60F921124B8
S1130C500F931F932F933F934F935F936F937F93C0
S1130C608F939F93AF93BF93EF93FF93809108016A
S1130C7090910901AC01092E000C660B770B9A01C7
S1130C8011270027409184005091850060E070E0B6
S1130C90402B512B622B732B40930A0150930B0171
S1130CA060930C0170930D01B09B1AC00196092E3C
S1130CB0000CAA0BBB0BBC01552744278091840070
S1130CC090918500A0E0B0E0842B952BA62BB72B48
S1130CD080930A0190930B01A0930C01B0930D0132
S1130CE0E091BA01F091BB01309739F068E070E00F
S1130CF0809122019091230109950E947702FF912E
S1130D00EF91BF91AF919F918F917F916F915F917F
S1130D104F913F912F911F910F910F900FBE0F9004
S1130D201F9018951F920F920FB60F9211240F93D4
S1130D301F932F933F934F935F936F937F938F935F
S1130D409F93AF93BF93EF93FF938091080190918A
S1130D500901AC01092E000C660B770B9A011127CF
S1130D600027409184005091850060E070E0402BA2
S1130D70512B622B732B40930A0150930B01609308
S1130D800C0170930D01B09B1AC00196092E000C42
S1130D90AA0BBB0BBC01552744278091840090917A
S1130DA08500A0E0B0E0842B952BA62BB72B809375
S1130DB00A0190930B01A0930C01B0930D01E091F3
S1130DC0BC01F091BD01309739F069E070E0809189
S1130DD024019091250109950E947702FF91EF91DA
S1130DE0BF91AF919F918F917F916F915F914F913F
S1130DF03F912F911F910F910F900FBE0F901F9055
S1130E0018951F920F920FB60F9211240F931F93F0
S1130E102F933F934F935F936F937F938F939F93FE
S1130E20AF93BF93EF93FF938091080190910901D1
S1130E30AC01092E000C660B770B9A0111270027D1
S1130E40409184005091850060E070E0402B512B6C
S1130E50622B732B40930A0150930B0160930C0196
S1130E6070930D01B09B1AC00196092E000CAA0BB9
S1130E70BB0BBC01552744278091840090918500C9
S1130E80A0E0B0E0842B952BA62BB72B80930A010E
S1130E9090930B01A0930C01B0930D01E091BE015E
S1130EA0F091BF01309739F06AE070E0809126013B
S1130EB09091270109950E947702FF91EF91BF91CC
S1130EC0AF919F918F917F916F915F914F913F91DE
S1130ED02F911F910F910F900FBE0F901F90189597
S1130EE01F920F920FB60F9211240F931F932F93FB
S1130EF03F934F935F936F937F938F939F93AF939E
S1130F00BF93EF93FF938091080190910901AC0185
S1130F10092E000C660B770B9A01112700274091CC
S1130F2084005091850060E070E0402B512B622BCF
S1130F30732B40930A0150930B0160930C0170933F
S1130F400D01B09B1AC00196092E000CAA0BBB0B15
S1130F50BC01552744278091840090918500A0E02E
S1130F60B0E0842B952BA62BB72B80930A0190938A
S1130F700B01A0930C01B0930D01E091C001F0911D
S1130F80C101309739F06BE070E0809128019091B5
S1130F90290109950E947702FF91EF91BF91AF91CA
S1130FA09F918F917F916F915F914F913F912F917D
S1130FB01F910F910F900FBE0F901F9018951F92C5
S1130FC00F920FB60F9211240F931F932F933F93F9
S1130FD04F935F936F937F938F939F93AF93BF933D
S1130FE0EF93FF938091080190910901AC01092EC0
S1130FF0000C660B770B9A0111270027409184009F
S11310005091850060E070E0402B512B622B732BD4
S113101040930A0150930B0160930C0170930D01EE
S1131020B09B1AC00196092E000CAA0BBB0BBC0185
S1131030552744278091840090918500A0E0B0E07A
S1131040842B952BA62BB72B80930A0190930B012D
S1131050A0930C01B0930D01E091C201F091C30182
S1131060309739F06CE070E080912A0190912B0167
S113107009950E947702FF91EF91BF91AF919F91E3
S11310808F917F916F915F914F913F912F911F911C
S11310900F910F900FBE0F901F9018951F920F92F3
S11310A00FB60F9211240F931F932F933F934F93D7
S11310B05F936F937F938F939F93AF93BF93EF93BC
S11310C0FF938091080190910901AC01092E000C55
S11310D0660B770B9A0111270027409184005091E9
S11310E0850060E070E0402B512B622B732B409302
S11310F00A0150930B0160930C0170930D01B09B96
S11311001AC00196092E000CAA0BBB0BBC01552773
S113111044278091840090918500A0E0B0E0842B66
S1131120952BA62BB72B80930A0190930B01A093C8
S11311300C01B0930D01E091C401F091C501309709
S113114039F06DE070E080912C0190912D010995AA
S11311500E947702FF91EF91BF91AF919F918F9180
S11311607F916F915F914F913F912F911F910F91BB
S11311700F900FBE0F901F9018951F920F920FB6ED
S11311800F9211240F931F932F933F934F935F93C9
S11311906F937F938F939F93AF93BF93EF93FF933B
S11311A08091080190910901AC01092E000C660B95
S11311B0770B9A01112700274091840050918500F4
S11311C060E070E0402B512B622B732B40930A019B
S11311D050930B0160930C0170930D01B09B1AC0E6
S11311E00196092E000CAA0BBB0BBC015527442702
S11311F08091840090918500A0E0B0E0842B952B31
S1131200A62BB72B80930A0190930B01A0930C019A
S1131210B0930D01E091C601F091C701309739F008
S11312206EE070E080912E0190912F0109950E944B
S11312307702FF91EF91BF91AF919F918F917F9131
S11312406F915F914F913F912F911F910F910F904B
S11312500FBE0F901F9018951F920F920FB60F920A
S113126011240F931F932F933F934F935F936F9387
S11312707F938F939F93AF93BF93EF93FF9380914B
S1131280080190910901AC01092E000C660B770B43
S11312909A0111270027409184005091850060E055
S11312A070E0402B512B622B732B40930A01509317
S11312B00B0160930C0170930D01B09B1AC0019651
S11312C0092E000CAA0BBB0BBC01552744278091A7
S11312D0840090918500A0E0B0E0842B952BA62B90
S11312E0B72B80930A0190930B01A0930C01B09348
S11312F00D01E091C801F091C901309739F06FE018
S113130070E0809130019091310109950E9477023B
S1131310FF91EF91BF91AF919F918F917F916F91C9
S11313205F914F913F912F911F910F910F900FBE9D
S11313300F901F9018951F920F920FB60F921124C1
S11313400F931F932F933F934F935F936F937F93C9
S11313508F939F93AF93BF93EF93FF938091080173
S113136090910901AC01092E000C660B770B9A01D0
S113137011270027409184005091850060E070E0BF
S1131380402B512B622B732B40930A0150930B017A
S113139060930C0170930D01B09B1AC00196092E45
S11313A0000CAA0BBB0BBC01552744278091840079
S11313B090918500A0E0B0E0842B952BA62BB72B51
S11313C080930A0190930B01A0930C01B0930D013B
S11313D0E091CA01F091CB01309739F060E170E0FF
S11313E0809132019091330109950E947702FF9117
S11313F0EF91BF91AF919F918F917F916F915F9189
S11314004F913F912F911F910F910F900FBE0F900D
S11314101F9018951F920F920FB60F9211240F93DD
S11314201F932F933F934F935F936F937F938F9368
S11314309F93AF93BF93EF93FF9380910801909193
S11314400901AC01092E000C660B770B9A011127D8
S11314500027409184005091850060E070E0402BAB
S1131460512B622B732B40930A0150930B01609311
S11314700C0170930D01B09B1AC00196092E000C4B
S1131480AA0BBB0BBC015527442780918400909183
S11314908500A0E0B0E0842B952BA62BB72B80937E
S11314A00A0190930B01A0930C01B0930D01E091FC
S11314B0CC01F091CD01309739F061E170E0809179
S11314C034019091350109950E947702FF91EF91C3
S11314D0BF91AF919F918F917F916F915F914F9148
S11314E03F912F911F910F910F900FBE0F901F905E
S11314F018950E947702789481E083BF8895FCCF89
S11315001F920F920FB60F9211242F933F934F9374
S11315105F936F937F938F939F93EF93FF93809148
S113152008019091090101969093090180930801A3
S1131530E0910E01F0910F01309701F14281538146
S11315406481758186179707C9F4CA0120918400C4
S113155030918500421B530B4130510529F4809191
S1131560840090918500019690938900809388006F
S1131570EFE6F0E080818260808305C0EFE6F0E072
S113158080818D7F8083FF91EF919F918F917F91D7
S11315906F915F914F913F912F910F900FBE0F90DC
S11315A01F9018951F920F920FB60F921124CF928D
S11315B0DF92EF92FF922F933F934F935F936F933A
S11315C07F938F939F93AF93BF93EF93FF938091F8
S11315D00801909109016C01092E000CEE08FF0826
S11315E07601DD24CC24409184005091850060E094
S11315F070E0C42AD52AE62AF72AB09B1EC06C01E3
S11316002FEFC21AD20A0D2C000CEE08FF08D601E7
S113161099278827C0908400D0908500E12CF12C74
S1131620C82AD92AEA2AFB2A08C08EE091E00E943F
S1131630420260E171E00E94E001E0910E01F0914C
S11316400F01309769F082819381A481B5818C194F
S11316509D09AE09BF09181619061A061B062CF7B0
S1131660309721F182819381A481B5812091080171
S1131670309109012A173B07C9F49C014091840069
S113168050918500841B950B019731F420918400BF
S1131690309185002F5F3F4F30938900209388005D
S11316A0EFE6F0E080818260808305C0EFE6F0E041
S11316B080818D7F80830E947702FF91EF91BF919B
S11316C0AF919F918F917F916F915F914F913F91D6
S11316D02F91FF90EF90DF90CF900F900FBE0F905F
S11316E01F9018953F924F925F926F927F928F92C4
S11316F09F92AF92BF92CF92DF92EF92FF920F939D
S11317001F93CF93DF932B013C0149015A018FB7FB
S11317108078382EF89486E091E00E944202EC0131
S11317201B870A87FD86EC86DF86CE86332061F030
S1131730E0910001F09101010280F381E02D8281AA
S11317409381A481B58108C080910A0190910B0115
S1131750A0910C01B0910D01480E591E6A1E7B1E0A
S11317604A825B826C827D82181419041A041B0459
S113177044F00F2E88248A94982CA82CFFE7BF2EBF
S1131780F02D840C951CA61CB71C8E829F82A88603
S1131790B9862091080130910901C901032E000C7A
S11317A0AA0BBB0BDC019927882740918400509138
S11317B0850060E070E0842B952BA62BB72BB09BA3
S11317C013C0C9010196092E000CAA0BBB0BDC0146
S11317D099278827409184005091850060E070E04B
S11317E0842B952BA62BB72B481A590A6A0A7B0A15
S11317F01414150416041704ACF56EE071E0CE0160
S11318000E941102E0910E01F0910F01309721F135
S113181082819381A481B5812091080130910901CD
S11318202A173B07C9F49C0140918400509185001C
S1131830841B950B019731F420918400309185002D
S11318402F5F3F4F3093890020938800EFE6F0E04C
S113185080818260808339C0EFE6F0E080818D7FF3
S1131860808333C060E171E0CE010E94E001332047
S113187061F18091040190910501892B31F1E0918E
S11318801001F091110186819781A085B185E091C5
S11318900201F09103010280F381E02D468157811A
S11318A060857185841B950BA60BB70B72F484E0DD
S11318B091E00E946D0262E071E00E9463028091F7
S11318C00201909103010E94C001332009F0789431
S11318D0CE01DF91CF911F910F91FF90EF90DF9098
S11318E0CF90BF90AF909F908F907F906F905F90BC
S11318F04F903F900895CF92DF92EF92FF920F9313
S11319001F93CF93DF93EC017B016A011FB710781B
S1131910F894A881B981109719F435C0A081B181D8
S11319201496ED91FC9115973097C1F72091000121
S113193030910101A217B30711F0111107C011234F
S113194009F44AC078948FEF9FEF4EC08A819B813F
S1131950009719F0FC01158214823B832A83F90154
S1131960D583C483CD010E94C001E0910001F091B0
S1131970010182819381892B31F4112381F17894BF
S113198080E090E031C08091000190910101998341
S11319908883112329F08A819B81019709F0789427
S11319A0B601CE01F7010995F82E092F8FB7F894E7
S11319B0198218828A819B818230910538F01B82BA
S11319C01A82FC01158214820E94C001112351F075
S11319D078948F2D902F08C08FEF9FEF05C080E083
S11319E090E002C08F2D902FDF91CF911F910F9126
S11319F0FF90EF90DF90CF90089500910001109137
S1131A00010180E191E00E944202EC01F80193831C
S1131A10828378946C857D854E855F858A859B85D8
S1131A200E947B0C8FB7F89466E071E0CE010E94AF
S1131A305902E0910201F09103010190F081E02D3F
S1131A40C281D381E0911001F09111013097A1F08E
S1131A50209799F286819781A085B1854E815F8117
S1131A6068857985841B950BA60BB70B1816190688
S1131A701A061B060CF0C1CF82E091E00E946D02B1
S1131A8064E071E00E946302A0910201B09103013D
S1131A9002C0A081B1811496ED91FC911597309705
S1131AA0C1F7CD010E94C001A8CFFC014231B8F4B6
S1131AB09FB79078F89450E0440F551FDA01AE5E5A
S1131AC0BE4FED93FC93DA01A655BE4F6D937C9304
S1131AD021E030E033832283992309F07894089538
S1131AE08C017B016A018FB7F8940E9421017894DC
S1131AF0E114F10441F020E030E0A90160E070E07D
S1131B00CB010E94720B8FB7F8940E94790A052EBC
S1131B1097FB1EF400940E949E0D57FD07D00E946F
S1131B20A60D07FC03D04EF40C949E0D50954095E1
S1131B30309521953F4F4F4F5F4F08959095809575
S1131B40709561957F4F8F4F9F4F0895A1E21A2E94
S1131B50AA1BBB1BFD010DC0AA1FBB1FEE1FFF1F4D
S1131B60A217B307E407F50720F0A21BB30BE40B9D
S1131B70F50B661F771F881F991F1A9469F76095E4
S1131B807095809590959B01AC01BD01CF0108959E
S1131B90DC012D923D924D925D926D927D928D92DB
S1131BA09D92AD92BD92CD92DD92ED92FD920D93F8
S1131BB01D93CD93DD93FF91EF918DB78D938EB7E8
S1131BC08D938FB78D93ED93FD938827992709946F
S1131BD0DC01CB0181309105811D2D903D904D900C
S1131BE05D906D907D908D909D90AD90BD90CD90C9
S1131BF0DD90ED90FD900D911D91CD91DD91ED91D4
S1131C00FD910D90F894FEBF0FBEEDBFED91FD91D7
S1091C100994F894FFCFD3
S10B1C16CE01CE013601EB0101
S9030000FC
