S00D00004C616220342E73726563B4
S11300000C942E000C9454050C94C3050C943206E5
S11300100C94A1060C9410070C944B000C947B0DCB
S11300200C944B000C94290D0C947F070C94EE0750
S11300300C945D080C94CC080C943B090C94AA090C
S11300400C94190A0C94880A0C94F70A0C94660B05
S11300500C94D50B0C94440C0C94B30C11241FBEBB
S1130060CFEFD4E0DEBFCDBF11E0A0E0B1E0EAE71E
S1130070F4E202C005900D92AA37B107D9F724E043
S1130080AAE7B1E001C01D92A13DB207E1F70E94C9
S1130090B7020C943B120C940000CF92DF92EF92C3
S11300A0FF920F931F93CF93DF93EC011E9933C0FC
S11300B00A851B85C12CD12C0F2EFFE8EF2EF3E00F
S11300C0FF2EF02D20E030E0A90160E070E0CB01CC
S11300D00E941B0EE885F985AA85BB8516968D912D
S11300E09C911797092E000CAA0BBB0B8483958354
S11300F0A683B783088519850F2EFAE7EF2EF2E061
S1130100FF2EF02D20E030E0A90160E070E0CB018B
S11301100E941B0E36C01F9933C00A851B85C12C53
S1130120D12C0F2EFBEAEF2EF3E0FF2EF02D20E072
S113013030E0A90160E070E0CB010E941B0EE8856D
S1130140F985AA85BB8516968D919C911797092EE2
S1130150000CAA0BBB0B84839583A683B783088505
S113016019850F2EFAE7EF2EF2E0FF2EF02D20E096
S113017030E0A90160E070E0CB010E941B0E01C0D9
S113018083B1DF91CF911F910F91FF90EF90DF909A
S1130190CF900895CF92DF92EF92FF920F931F9327
S11301A0CF93DF93FC01629932C084819581938758
S11301B08287A085B18519961C921E921897C085D6
S11301C0D185A481B58116968D919C911797092E9E
S11301D0000CAA0BBB0B8C839D83AE83BF83109250
S11301E0F90081E08093FE0000851185C12CD12C9B
S11301F00F2EFAE7EF2EF2E0FF2EF02D20E030E094
S1130200A90160E070E0CB010E941B0E33C063992A
S113021031C0A681B781B387A287C085D1851696E0
S11302208D919C911797092E000CAA0BBB0B8C8304
S11302309D83AE83BF8381E08093F9001092FE001A
S1130240A085B18584E090E019969C938E931897CD
S113025000851185C12CD12C0F2EFAE7EF2EF2E088
S1130260FF2EF02D20E030E0A90160E070E0CB012A
S11302700E941B0EDF91CF911F910F91FF90EF9081
S1130280DF90CF900895E1E6F0E080E8808310826B
S113029087EB8093E50087E08093E6008FE080930E
S11302A0E70080EC8093E4000895CF92DF92EF9210
S11302B0FF921F93CF93DF9310ED180F66307105F3
S11302C008F0B1C01A3008F0AEC09B012E5F3F4F5A
S11302D0C90199230CF401966B01BC0175956795CE
S11302E0072E000C880B990B0E94D5100E94101148
S11302F020E030E040E85FE30E9430100E949D104F
S1130300FB01EE0FFF1FE05BFE4FA081B181ED907A
S1130310FC901197E12FF0E09F01220F331F220F71
S1130320331F220F331F20503F4FE9014881598169
S1130330960121703078332334F4215031092E6F23
S11303403F6F2F5F3F4F220F331F220F331F022EA9
S113035002C0440F551F0A94E2F74E0D5F1D4D93E2
S11303605C936B017C01D4E0CD0ED11CE11CF11C2B
S1130370A601440F551FDA01A05BBE4F0D90BC913E
S1130380A02DCD91DC911197EE0FFF1FEE0FFF1FF3
S1130390EE0FFF1FE050FF4F42815381022E02C037
S11303A0440F551F0A94E2F74C0F5D1F4D935C9365
S11303B06B017C0148E0C40ED11CE11CF11CA601B8
S11303C0440F551FDA01A05BBE4F0D90BC91A02DC8
S11303D0CD91DC91119744815581022E02C0440FC6
S11303E0551F0A94E2F74C0F5D1F4D935C93DC019B
S11303F0CB010C96A11DB11DBC01660F771FDB015B
S1130400A05BBE4F0D90BC91A02D4D915C911197B6
S11304108681978102C0880F991F2A95E2F7840F7D
S1130420951F8D939C93DF91CF911F91FF90EF9037
S1130430DF90CF9008958230910548F41092EC003B
S11304401092F1001092F6001092FB0008950397A9
S1130450029780F41092ED001092EE001092F200D8
S11304601092F3001092F7001092F8001092FC0022
S11304701092FD0008958F929F92AF92BF92CF92F7
S1130480DF92EF92FF92CF93DF934B015C01EA017D
S1130490CA010E941B02C501B40124E630E040E019
S11304A050E00E94B9110F2EFAE0CF2ED12CE12C8E
S11304B0F12CF02DA70196010E94B911BE0180E331
S11304C0820F0E9455012196C501B401A70196012E
S11304D00E94B911862FBE01805D0E945501DF91F3
S11304E0CF91FF90EF90DF90CF90BF90AF909F900F
S11304F08F900895CF93DF93EC018C819D81AE8121
S1130500BF81BB2324F41C821D821E821F828C8126
S11305109D81AE81BF8184369105A105B10544F06A
S113052083E690E0A0E0B0E08C839D83AE83BF833C
S1130530888599850E941B02488559856C817D8137
S11305408E819F810E943B02DF91CF910895CF93CA
S1130550DF93EC010E947A028E859F850E945B03E3
S1130560888999890E945B03DF91CF9108950F9345
S11305701F93CF93DF93CDB7DEB7C054D1090FB625
S1130580F894DEBF0FBECDBF80ED85B98CE08EB987
S11305908FEF80936C0080936B008DB3806C8DBB68
S11305A08EB18EB98DB180658DB91A8219821C8283
S11305B01B821E821D8218861F821A8619861C863B
S11305C01B8681E090E09E878D87988B8F871A8A9F
S11305D0198A9E012F5F3F4F3C8B2B8B1E8A1D8AED
S11305E0188E1F8A9A8F898F44E050E05C8F4B8F5E
S11305F09E8F8D8F18A21F8E3AA329A31CA21BA223
S11306001EA21DA281E090E0A0E0B0E08FA398A715
S1130610A9A7BAA71CA61BA61EA61DA618AA1FA694
S1130620CE0107969AAB89AB2C5E3F4F3CAB2BAB0C
S11306301EAA1DAA18AE1FAA9AAF89AF3CAF2BAF52
S11306408E010D5D1F4F1EAF0DAF21969FAF8EAF74
S113065021970E94430141E06AEC70E0CE01C59607
S11306600E94FE0F42E06DE470E0CE01C5960E9448
S1130670FE0F40E050E067EA72E0C8010E941910E2
S1130680C05CDF4F0FB6F894DEBF0FBECDBFDF9165
S1130690CF911F910F9108956115710521F49EB1B9
S11306A080E189278EB96130710521F49EB180E41F
S11306B089278EB90895CF92DF92EF92FF920F931C
S11306C01F93CF93DF93EC016C817D818C859D8595
S11306D00E944C032E813F81032E000C440B550BCA
S11306E069E07DE380E090E00E94B911CA01B9019C
S11306F0C12CD12C0F2EFBE5EF2EF3E0FF2EF02DB5
S11307008E0120E030E0A9010E941B0EDF91CF9101
S11307101F910F91FF90EF90DF90CF90089520915B
S11307207C0130917D012F5F3F4F30937D012093F9
S11307307C0120917001309171012F5F3F4F309304
S1130740710120937001FC01268137812F5F3F4F97
S113075037832683089520917A0130917B012F5F9E
S11307603F4F30937B0120937A01209170013091A7
S11307707101215031093093710120937001FC0102
S1130780268137812230310524F021503109378305
S113079026830895CF93DF9300D000D0CDB7DEB782
S11307A080E090E018C0AC014F5F5F4F9A01229542
S11307B03295307F3227207F32272F593D4F829543
S11307C09295907F9827807F9827FC01EF59FD4FE1
S11307D031832083CA018E3091052CF31092420399
S11307E01092410380E090E015C0AC014F5F5F4F71
S11307F06DE1649F9001659F300D112424553E4F97
S1130800689FF001699FF00D1124E455FE4F318378
S11308102083CA018330910544F31092040210929C
S113082003021A82198232C02DE149815A81249F20
S1130830C001259F900D1124FC01EE54FE4FFC8352
S1130840EB83CF010E94FA1120E649815A81249F4B
S1130850C001259F900D112483559C4FEB81FC8191
S1130860918B808B938B828B86EA9FE0968B858B12
S11308708DE1849FF001859FF00D1124E455FE4F16
S1130880158214824F5F5F4F5A83498329813A81CD
S1130890243031054CF2E4E4F2E011821082158236
S11308A0148213821282E1E6F0E080E880831082F1
S11308B0109285001092840084E08093810081E08E
S11308C080936F000F900F900F900F90DF91CF9156
S11308D00895CF93DF9300D0CDB7DEB79A83898391
S11308E0809172019091730106960E94FA11892BEE
S11308F059F489819A81909373018093720161E024
S113090070E006960E941A120F900F90DF91CF911B
S113091008950F931F93CF93DF93DC01CB01EB0179
S1130920E881F981C0E0D0E004C0EF010190F081DA
S1130930E02D309779F00681178120853185169650
S11309404D915D916D917C91199740175107620704
S113095073075CF71196FC93EE93209721F4FC0146
S1130960B183A08302C0B983A883DF91CF911F9183
S11309700F9108950F931F93CF93DF93DC01CB0165
S1130980EB01E881F981C0E0D0E004C0EF010190FF
S1130990F081E02D309779F0028113812481358133
S11309A012964D915D916D917C9115974017510769
S11309B0620773075CF71196FC93EE93209721F47A
S11309C0FC01B183A08302C0B983A883DF91CF91D6
S11309D01F910F910895DC01ED91FC9111973097CF
S11309E059F48FEF8093EC008093ED008093EE0038
S11309F081E083BF8895FCCF208131812D933C9386
S1130A00CF010895FB0120813181FC0131832083D2
S1130A10FB01918380830895FB0120813181FC01D6
S1130A2031832083FB01918380830895DC01ED9160
S1130A30FC911197208131812D933C93CF0108952E
S1130A40CF93DF93E0917401F0917501C281D3815A
S1130A50E0918601F0918701309719F18091760138
S1130A6090917701892BE9F0209769F0868197812D
S1130A70A085B1854E815F8168857985841B950B3E
S1130A80A60BB70B72F486E791E00E94160564E7A3
S1130A9071E00E940C0580917401909175010E948F
S1130AA06904DF91CF9108951F920F920FB60F92B0
S1130AB011240F931F932F933F934F935F936F933F
S1130AC07F938F939F93AF93BF93EF93FF93809103
S1130AD07E0190917F01AC01092E000C660B770B0F
S1130AE09A0111270027409184005091850060E00D
S1130AF070E0402B512B622B732B40938001509359
S1130B0081016093820170938301B09B1AC00196A6
S1130B10092E000CAA0BBB0BBC015527442780915E
S1130B20840090918500A0E0B0E0842B952BA62B47
S1130B30B72B8093800190938101A0938201B0939D
S1130B408301E0912002F0912102309739F060E0B6
S1130B5070E0809188019091890109950E94200597
S1130B60FF91EF91BF91AF919F918F917F916F9181
S1130B705F914F913F912F911F910F910F900FBE55
S1130B800F901F9018951F920F920FB60F92112479
S1130B900F931F932F933F934F935F936F937F9381
S1130BA08F939F93AF93BF93EF93FF9380917E01B5
S1130BB090917F01AC01092E000C660B770B9A0112
S1130BC011270027409184005091850060E070E077
S1130BD0402B512B622B732B409380015093810146
S1130BE06093820170938301B09B1AC00196092E11
S1130BF0000CAA0BBB0BBC01552744278091840031
S1130C0090918500A0E0B0E0842B952BA62BB72B08
S1130C108093800190938101A0938201B09383011A
S1130C20E0912202F0912302309739F061E070E004
S1130C3080918A0190918B0109950E942005FF9172
S1130C40EF91BF91AF919F918F917F916F915F9140
S1130C504F913F912F911F910F910F900FBE0F90C5
S1130C601F9018951F920F920FB60F9211240F9395
S1130C701F932F933F934F935F936F937F938F9320
S1130C809F93AF93BF93EF93FF9380917E019091D5
S1130C907F01AC01092E000C660B770B9A0111271A
S1130CA00027409184005091850060E070E0402B63
S1130CB0512B622B732B40938001509381016093DD
S1130CC0820170938301B09B1AC00196092E000C17
S1130CD0AA0BBB0BBC01552744278091840090913B
S1130CE08500A0E0B0E0842B952BA62BB72B809336
S1130CF0800190938101A0938201B0938301E091DC
S1130D002402F0912502309739F062E070E080917E
S1130D108C0190918D0109950E942005FF91EF911E
S1130D20BF91AF919F918F917F916F915F914F91FF
S1130D303F912F911F910F910F900FBE0F901F9015
S1130D4018951F920F920FB60F9211240F931F93B1
S1130D502F933F934F935F936F937F938F939F93BF
S1130D60AF93BF93EF93FF9380917E0190917F01A6
S1130D70AC01092E000C660B770B9A011127002792
S1130D80409184005091850060E070E0402B512B2D
S1130D90622B732B409380015093810160938201F5
S1130DA070938301B09B1AC00196092E000CAA0B04
S1130DB0BB0BBC015527442780918400909185008A
S1130DC0A0E0B0E0842B952BA62BB72B8093800159
S1130DD090938101A0938201B0938301E091260254
S1130DE0F0912702309739F063E070E080918E0132
S1130DF090918F0109950E942005FF91EF91BF9179
S1130E00AF919F918F917F916F915F914F913F919E
S1130E102F911F910F910F900FBE0F901F90189557
S1130E201F920F920FB60F9211240F931F932F93BB
S1130E303F934F935F936F937F938F939F93AF935E
S1130E40BF93EF93FF9380917E0190917F01AC015A
S1130E50092E000C660B770B9A011127002740918D
S1130E6084005091850060E070E0402B512B622B90
S1130E70732B40938001509381016093820170939E
S1130E808301B09B1AC00196092E000CAA0BBB0B60
S1130E90BC01552744278091840090918500A0E0EF
S1130EA0B0E0842B952BA62BB72B809380019093D5
S1130EB08101A0938201B0938301E0912802F09113
S1130EC02902309739F064E070E0809190019091AC
S1130ED0910109950E942005FF91EF91BF91AF9177
S1130EE09F918F917F916F915F914F913F912F913E
S1130EF01F910F910F900FBE0F901F9018951F9286
S1130F000F920FB60F9211240F931F932F933F93B9
S1130F104F935F936F937F938F939F93AF93BF93FD
S1130F20EF93FF9380917E0190917F01AC01092E94
S1130F30000C660B770B9A0111270027409184005F
S1130F405091850060E070E0402B512B622B732B95
S1130F5040938001509381016093820170938301D7
S1130F60B09B1AC00196092E000CAA0BBB0BBC0146
S1130F70552744278091840090918500A0E0B0E03B
S1130F80842B952BA62BB72B809380019093810102
S1130F90A0938201B0938301E0912A02F0912B0285
S1130FA0309739F065E070E080919201909193015F
S1130FB009950E942005FF91EF91BF91AF919F91F8
S1130FC08F917F916F915F914F913F912F911F91DD
S1130FD00F910F900FBE0F901F9018951F920F92B4
S1130FE00FB60F9211240F931F932F933F934F9398
S1130FF05F936F937F938F939F93AF93BF93EF937D
S1131000FF9380917E0190917F01AC01092E000C29
S1131010660B770B9A0111270027409184005091A9
S1131020850060E070E0402B512B622B732B4093C2
S11310308001509381016093820170938301B09B7E
S11310401AC00196092E000CAA0BBB0BBC01552734
S113105044278091840090918500A0E0B0E0842B27
S1131060952BA62BB72B8093800190938101A0939D
S11310708201B0938301E0912C02F0912D0230970C
S113108039F066E070E080919401909195010995A2
S11310900E942005FF91EF91BF91AF919F918F9195
S11310A07F916F915F914F913F912F911F910F917C
S11310B00F900FBE0F901F9018951F920F920FB6AE
S11310C00F9211240F931F932F933F934F935F938A
S11310D06F937F938F939F93AF93BF93EF93FF93FC
S11310E080917E0190917F01AC01092E000C660B6A
S11310F0770B9A01112700274091840050918500B5
S113110060E070E0402B512B622B732B40938001E5
S1131110509381016093820170938301B09B1AC044
S11311200196092E000CAA0BBB0BBC0155274427C2
S11311308091840090918500A0E0B0E0842B952BF1
S1131140A62BB72B8093800190938101A0938201F9
S1131150B0938301E0912E02F0912F02309739F081
S113116067E070E0809196019091970109950E9443
S11311702005FF91EF91BF91AF919F918F917F9146
S11311806F915F914F913F912F911F910F910F900C
S11311900FBE0F901F9018951F920F920FB60F92CB
S11311A011240F931F932F933F934F935F936F9348
S11311B07F938F939F93AF93BF93EF93FF9380910C
S11311C07E0190917F01AC01092E000C660B770B18
S11311D09A0111270027409184005091850060E016
S11311E070E0402B512B622B732B40938001509362
S11311F081016093820170938301B09B1AC00196B0
S1131200092E000CAA0BBB0BBC0155274427809167
S1131210840090918500A0E0B0E0842B952BA62B50
S1131220B72B8093800190938101A0938201B093A6
S11312308301E0913002F0913102309739F068E097
S113124070E0809198019091990109950E94200580
S1131250FF91EF91BF91AF919F918F917F916F918A
S11312605F914F913F912F911F910F910F900FBE5E
S11312700F901F9018951F920F920FB60F92112482
S11312800F931F932F933F934F935F936F937F938A
S11312908F939F93AF93BF93EF93FF9380917E01BE
S11312A090917F01AC01092E000C660B770B9A011B
S11312B011270027409184005091850060E070E080
S11312C0402B512B622B732B40938001509381014F
S11312D06093820170938301B09B1AC00196092E1A
S11312E0000CAA0BBB0BBC0155274427809184003A
S11312F090918500A0E0B0E0842B952BA62BB72B12
S11313008093800190938101A0938201B093830123
S1131310E0913202F0913302309739F069E070E0E5
S113132080919A0190919B0109950E942005FF915B
S1131330EF91BF91AF919F918F917F916F915F9149
S11313404F913F912F911F910F910F900FBE0F90CE
S11313501F9018951F920F920FB60F9211240F939E
S11313601F932F933F934F935F936F937F938F9329
S11313709F93AF93BF93EF93FF9380917E019091DE
S11313807F01AC01092E000C660B770B9A01112723
S11313900027409184005091850060E070E0402B6C
S11313A0512B622B732B40938001509381016093E6
S11313B0820170938301B09B1AC00196092E000C20
S11313C0AA0BBB0BBC015527442780918400909144
S11313D08500A0E0B0E0842B952BA62BB72B80933F
S11313E0800190938101A0938201B0938301E091E5
S11313F03402F0913502309739F06AE070E0809160
S11314009C0190919D0109950E942005FF91EF9107
S1131410BF91AF919F918F917F916F915F914F9108
S11314203F912F911F910F910F900FBE0F901F901E
S113143018951F920F920FB60F9211240F931F93BA
S11314402F933F934F935F936F937F938F939F93C8
S1131450AF93BF93EF93FF9380917E0190917F01AF
S1131460AC01092E000C660B770B9A01112700279B
S1131470409184005091850060E070E0402B512B36
S1131480622B732B409380015093810160938201FE
S113149070938301B09B1AC00196092E000CAA0B0D
S11314A0BB0BBC0155274427809184009091850093
S11314B0A0E0B0E0842B952BA62BB72B8093800162
S11314C090938101A0938201B0938301E09136024D
S11314D0F0913702309739F06BE070E080919E0113
S11314E090919F0109950E942005FF91EF91BF9172
S11314F0AF919F918F917F916F915F914F913F91A8
S11315002F911F910F910F900FBE0F901F90189560
S11315101F920F920FB60F9211240F931F932F93C4
S11315203F934F935F936F937F938F939F93AF9367
S1131530BF93EF93FF9380917E0190917F01AC0163
S1131540092E000C660B770B9A0111270027409196
S113155084005091850060E070E0402B512B622B99
S1131560732B4093800150938101609382017093A7
S11315708301B09B1AC00196092E000CAA0BBB0B69
S1131580BC01552744278091840090918500A0E0F8
S1131590B0E0842B952BA62BB72B809380019093DE
S11315A08101A0938201B0938301E0913802F0910C
S11315B03902309739F06CE070E08091A00190918D
S11315C0A10109950E942005FF91EF91BF91AF9170
S11315D09F918F917F916F915F914F913F912F9147
S11315E01F910F910F900FBE0F901F9018951F928F
S11315F00F920FB60F9211240F931F932F933F93C3
S11316004F935F936F937F938F939F93AF93BF9306
S1131610EF93FF9380917E0190917F01AC01092E9D
S1131620000C660B770B9A01112700274091840068
S11316305091850060E070E0402B512B622B732B9E
S113164040938001509381016093820170938301E0
S1131650B09B1AC00196092E000CAA0BBB0BBC014F
S1131660552744278091840090918500A0E0B0E044
S1131670842B952BA62BB72B80938001909381010B
S1131680A0938201B0938301E0913A02F0913B026E
S1131690309739F06DE070E08091A2019091A30140
S11316A009950E942005FF91EF91BF91AF919F9101
S11316B08F917F916F915F914F913F912F911F91E6
S11316C00F910F900FBE0F901F9018951F920F92BD
S11316D00FB60F9211240F931F932F933F934F93A1
S11316E05F936F937F938F939F93AF93BF93EF9386
S11316F0FF9380917E0190917F01AC01092E000C33
S1131700660B770B9A0111270027409184005091B2
S1131710850060E070E0402B512B622B732B4093CB
S11317208001509381016093820170938301B09B87
S11317301AC00196092E000CAA0BBB0BBC0155273D
S113174044278091840090918500A0E0B0E0842B30
S1131750952BA62BB72B8093800190938101A093A6
S11317608201B0938301E0913C02F0913D023097F5
S113177039F06EE070E08091A4019091A501099583
S11317800E942005FF91EF91BF91AF919F918F919E
S11317907F916F915F914F913F912F911F910F9185
S11317A00F900FBE0F901F9018951F920F920FB6B7
S11317B00F9211240F931F932F933F934F935F9393
S11317C06F937F938F939F93AF93BF93EF93FF9305
S11317D080917E0190917F01AC01092E000C660B73
S11317E0770B9A01112700274091840050918500BE
S11317F060E070E0402B512B622B732B40938001EF
S1131800509381016093820170938301B09B1AC04D
S11318100196092E000CAA0BBB0BBC0155274427CB
S11318208091840090918500A0E0B0E0842B952BFA
S1131830A62BB72B8093800190938101A093820102
S1131840B0938301E0913E02F0913F02309739F06A
S11318506FE070E08091A6019091A70109950E9424
S11318602005FF91EF91BF91AF919F918F917F914F
S11318706F915F914F913F912F911F910F910F9015
S11318800FBE0F901F9018951F920F920FB60F92D4
S113189011240F931F932F933F934F935F936F9351
S11318A07F938F939F93AF93BF93EF93FF93809115
S11318B07E0190917F01AC01092E000C660B770B21
S11318C09A0111270027409184005091850060E01F
S11318D070E0402B512B622B732B4093800150936B
S11318E081016093820170938301B09B1AC00196B9
S11318F0092E000CAA0BBB0BBC0155274427809171
S1131900840090918500A0E0B0E0842B952BA62B59
S1131910B72B8093800190938101A0938201B093AF
S11319208301E0914002F0914102309739F060E187
S113193070E08091A8019091A90109950E94200569
S1131940FF91EF91BF91AF919F918F917F916F9193
S11319505F914F913F912F911F910F910F900FBE67
S11319600F901F9018951F920F920FB60F9211248B
S11319700F931F932F933F934F935F936F937F9393
S11319808F939F93AF93BF93EF93FF9380917E01C7
S113199090917F01AC01092E000C660B770B9A0124
S11319A011270027409184005091850060E070E089
S11319B0402B512B622B732B409380015093810158
S11319C06093820170938301B09B1AC00196092E23
S11319D0000CAA0BBB0BBC01552744278091840043
S11319E090918500A0E0B0E0842B952BA62BB72B1B
S11319F08093800190938101A0938201B09383012D
S1131A00E0914202F0914302309739F061E170E0D5
S1131A108091AA019091AB0109950E942005FF9144
S1131A20EF91BF91AF919F918F917F916F915F9152
S1131A304F913F912F911F910F910F900FBE0F90D7
S1131A401F9018950E942005789481E083BF8895A3
S1131A50FCCF1F920F920FB60F9211242F933F9336
S1131A604F935F936F937F938F939F93EF93FF9322
S1131A7080917E0190917F01019690937F018093E4
S1131A807E01E0918401F0918501309701F142815A
S1131A9053816481758186179707C9F4CA0120911F
S1131AA0840030918500421B530B4130510529F4C9
S1131AB08091840090918500019690938900809391
S1131AC08800EFE6F0E080818260808305C0EFE665
S1131AD0F0E080818D7F8083FF91EF919F918F91C2
S1131AE07F916F915F914F913F912F910F900FBE16
S1131AF00F901F9018951F920F920FB60F921124FA
S1131B00CF92DF92EF92FF922F933F934F935F9385
S1131B106F937F938F939F93AF93BF93EF93FF93B1
S1131B2080917E0190917F016C01092E000CEE08DA
S1131B30FF087601DD24CC24409184005091850077
S1131B4060E070E0C42AD52AE62AF72AB09B1EC0BA
S1131B506C012FEFC21AD20A0D2C000CEE08FF08FC
S1131B60D60199278827C0908400D0908500E12C65
S1131B70F12CC82AD92AEA2AFB2A08C084E891E071
S1131B800E94EB0466E871E00E948904E0918401FC
S1131B90F0918501309769F082819381A481B581A8
S1131BA08C199D09AE09BF09181619061A061B06D9
S1131BB02CF7309721F182819381A481B581209102
S1131BC07E0130917F012A173B07C9F49C014091A3
S1131BD0840050918500841B950B019731F420916A
S1131BE08400309185002F5F3F4F3093890020930C
S1131BF08800EFE6F0E080818260808305C0EFE634
S1131C00F0E080818D7F80830E942005FF91EF9119
S1131C10BF91AF919F918F917F916F915F914F9100
S1131C203F912F91FF90EF90DF90CF900F900FBED8
S1131C300F901F9018953F924F925F926F927F92F0
S1131C408F929F92AF92BF92CF92DF92EF92FF92C8
S1131C500F931F93CF93DF932B013C0149015A014A
S1131C608FB78078382EF89488E791E00E94EB04CF
S1131C70EC011B870A87FD86EC86DF86CE8633203F
S1131C8061F0E0917201F09173010280F381E02D23
S1131C9082819381A481B58108C080918001909153
S1131CA08101A0918201B0918301480E591E6A1EE0
S1131CB07B1E4A825B826C827D82181419041A048A
S1131CC01B0444F00F2E88248A94982CA82CFFE738
S1131CD0BF2EF02D840C951CA61CB71C8E829F82EF
S1131CE0A886B98620917E0130917F01C901032E17
S1131CF0000CAA0BBB0BDC019927882740918400B8
S1131D005091850060E070E0842B952BA62BB72BB7
S1131D10B09B13C0C9010196092E000CAA0BBB0B82
S1131D20DC0199278827409184005091850060E068
S1131D3070E0842B952BA62BB72B481A590A6A0AF4
S1131D407B0A1414150416041704ACF564E871E056
S1131D50CE010E94BA04E0918401F091850130978C
S1131D6021F182819381A481B58120917E013091FA
S1131D707F012A173B07C9F49C01409184005091CC
S1131D808500841B950B019731F4209184003091D8
S1131D9085002F5F3F4F3093890020938800EFE642
S1131DA0F0E080818260808339C0EFE6F0E08081DA
S1131DB08D7F808333C066E871E0CE010E94890480
S1131DC0332061F18091760190917701892B31F173
S1131DD0E0918601F091870186819781A085B18584
S1131DE0E0917401F09175010280F381E02D468148
S1131DF0578160857185841B950BA60BB70B72F414
S1131E0086E791E00E94160564E771E00E940C05E4
S1131E1080917401909175010E946904332009F046
S1131E207894CE01DF91CF911F910F91FF90EF90A5
S1131E30DF90CF90BF90AF909F908F907F906F90E6
S1131E405F904F903F900895CF92DF92EF92FF9270
S1131E500F931F93CF93DF93EC017B016A011FB7AC
S1131E601078F894A881B981109719F435C0A0812D
S1131E70B1811496ED91FC9115973097C1F720919B
S1131E80720130917301A217B30711F0111107C049
S1131E90112309F44AC078948FEF9FEF4EC08A81D2
S1131EA09B81009719F0FC01158214823B832A83DD
S1131EB0F901D583C483CD010E946904E0917201C4
S1131EC0F091730182819381892B31F4112381F183
S1131ED0789480E090E031C0809172019091730118
S1131EE099838883112329F08A819B81019709F0C2
S1131EF07894B601CE01F7010995F82E092F8FB712
S1131F00F894198218828A819B818230910538F075
S1131F101B821A82FC01158214820E946904112317
S1131F2051F078948F2D902F08C08FEF9FEF05C04C
S1131F3080E090E002C08F2D902FDF91CF911F9110
S1131F400F91FF90EF90DF90CF9008950091720170
S1131F501091730186E891E00E94EB04EC01F80112
S1131F609383828378946C857D854E855F858A858D
S1131F709B850E94240F8FB7F89468E771E0CE0127
S1131F800E940205E0917401F09175010190F081C5
S1131F90E02DC281D381E0918601F09187013097D1
S1131FA0A1F0209799F286819781A085B1854E8111
S1131FB05F8168857985841B950BA60BB70B181672
S1131FC019061A061B060CF0C1CF84E791E00E94A3
S1131FD0160566E771E00E940C05A0917401B091AA
S1131FE0750102C0A081B1811496ED91FC91159701
S1131FF03097C1F7CD010E946904A8CFFC0142319A
S1132000B8F49FB79078F89450E0440F551FDA0164
S1132010A857BE4FED93FC93DA01A05EBD4F6D93BC
S11320207C9321E030E033832283992309F0789470
S113203008958C017B016A018FB7F8940E94CA034A
S11320407894E114F10441F020E030E0A90160E06B
S113205070E0CB010E941B0E8FB7F8940E94220DF2
S11320605058BB27AA270E9448100C9467110E945D
S1132070591138F00E94601120F039F49F3F19F48F
S113208026F40C9456110EF4E095E7FB0C942711FA
S1132090E92F0E94781158F3BA176207730784076F
S11320A0950720F079F4A6F50C94B2110EF4E0959E
S11320B00B2EBA2FA02D0B01B90190010C01CA01FE
S11320C0A0011124FF27591B99F0593F50F4503EA9
S11320D068F11A16F040A22F232F342F4427585F9B
S11320E0F3CF469537952795A795F0405395C9F7B3
S11320F07EF41F16BA0B620B730B840BBAF091506B
S1132100A1F0FF0FBB1F661F771F881FC2F70EC009
S1132110BA0F621F731F841F48F4879577956795DC
S1132120B795F7959E3F08F0B0CF9395880F08F0C8
S11321309927EE0F9795879508950E94A4106894A7
S1132140B1110C94B31108950E94801188F09F5727
S113215098F0B92F9927B751B0F0E1F0660F771FC7
S1132160881F991F1AF0BA95C9F714C0B13091F0BD
S11321700E94B211B1E008950C94B211672F782F28
S11321808827B85F39F0B93FCCF386957795679582
S1132190B395D9F73EF490958095709561957F4FEE
S11321A08F4F9F4F0895E89409C097FB3EF4909594
S11321B08095709561957F4F8F4F9F4F9923A9F01C
S11321C0F92F96E9BB279395F695879577956795AB
S11321D0B795F111F8CFFAF4BB0F11F460FF1BC0EF
S11321E06F5F7F4F8F4F9F4F16C0882311F096E982
S11321F011C0772321F09EE8872F762F05C0662330
S113220071F096E8862F70E060E02AF09A95660FE8
S1132210771F881FDAF7880F9695879597F90895A1
S11322200E949A1190F09F3748F4911116F00C9483
S1132230B31160E070E080E89FEB089526F41B166C
S1132240611D711D811D0C942D110C94481197F979
S11322509F6780E870E060E00895882371F4772335
S113226021F09850872B762F07C0662311F4992705
S11322700DC09051862B70E060E02AF09A95660FAD
S1132280771F881FDAF7880F9695879597F9089531
S11322909F3F31F0915020F4879577956795B795D6
S11322A0880F911D9695879597F908959FEF80EC77
S11322B0089500240A9416161706180609060895A8
S11322C000240A9412161306140605060895092E0E
S11322D00394000C11F4882352F0BB0F40F4BF2B7D
S11322E011F460FF04C06F5F7F4F8F4F9F4F0895BD
S11322F057FD9058440F551F59F05F3F71F04795B3
S1132300880F97FB991F61F09F3F79F08795089597
S1132310121613061406551FF2CF4695F1DF08C0B6
S1132320161617061806991FF1CF869571056105D3
S1132330089408950E948011A0F0BEE7B91788F4AC
S1132340BB279F3860F41616B11D672F782F882796
S1132350985FF7CF869577956795B11D93959639D4
S1132360C8F30895E894BB2766277727CB0197F92C
S11323700895052E97FB1EF400940E94D01157FD7A
S113238007D00E94D81107FC03D04EF40C94D0114E
S113239050954095309521953F4F4F4F5F4F08958D
S11323A090958095709561957F4F8F4F9F4F0895BD
S11323B0A1E21A2EAA1BBB1BFD010DC0AA1FBB1F45
S11323C0EE1FFF1FA217B307E407F50720F0A21BB7
S11323D0B30BE40BF50B661F771F881F991F1A9424
S11323E069F760957095809590959B01AC01BD014E
S11323F0CF010895DC012D923D924D925D926D9234
S11324007D928D929D92AD92BD92CD92DD92ED9290
S1132410FD920D931D93CD93DD93FF91EF918DB7B5
S11324208D938EB78D938FB78D93ED93FD938827FE
S113243099270994DC01CB0181309105811D2D90F0
S11324403D904D905D906D907D908D909D90AD9060
S1132450BD90CD90DD90ED90FD900D911D91CD91AD
S1132460DD91ED91FD910D90F894FEBF0FBEEDBF8F
S10D2470ED91FD910994F894FFCF5B
S113247A0100050005000100000001000100000040
S113248A010001000E000100010001000B0001001F
S113249A000005000B000000010004000B0001000D
S11324AA010004000F000100010001000100000006
S11324BA010005000F000100010005000B000100E6
S11324CAEC00ED00EE00EF00F100F200F300F4007E
S11324DAF600F700F800F900FB00FC00FD00FE001E
S10D24EA010044024402AC01610247
S903054EA9
